:100000000C942A000C9447000C9447000C94470071
:100010000C9447000C9447000C9447000C94470044
:100020000C9447000C9447000C9447000C94470034
:100030000C9447000C94FC000C9447000C9447006F
:100040000C9447000C9447000C9447000C94470014
:100050000C94470011241FBECFE5D8E0DEBFCDBF12
:1000600011E0A0E6B0E0EEE6FDE002C005900D92E2
:10007000A43CB107D9F723E0A4ECB1E001C01D9284
:10008000A63AB207E1F70E94F3020C94B5060C946D
:1000900000008BBB84E088BB89EF90E00197F1F70B
:1000A00000C0000018BA83ED90E30197F1F700C09B
:1000B0000000089588E30E94490089EF90E00197CD
:1000C000F1F700C0000081E00E94490089EF90E054
:1000D0000197F1F700C000008EE00E94490089EF0F
:1000E00090E00197F1F700C0000008958BBB85E018
:1000F00088BB89EF90E00197F1F700C0000081E034
:1001000088BB81EE94E00197F1F700C000000895EC
:10011000EF92FF921F93CF93DF937C01162FC0E0E5
:10012000D0E007C0F701EC0FFD1F80810E94760030
:100130002196812F90E0C817D907A4F3DF91CF91C2
:100140001F91FF90EF90089581E00E94490008956B
:1001500080E80E944900089580EC0E9449000895BB
:100160008BBB88B38D7F88BB88B3856088BB00005C
:1001700088B38B7F88BB89EF90E00197F1F700C0CF
:10018000000008952AB128692AB920B5266820BD43
:100190009B01AC01220F331F441F551F60E472E422
:1001A0008FE090E00E947A038FEF820F89B9DA0125
:1001B000C9010197A109B109892F9A2FAB2FBB273C
:1001C00080BD08958CB95D9BFECF08950F931F935A
:1001D000CF93DF938C01C0E0D0E003C00E94E20027
:1001E0002196F801EC0FFD1F80818111F7CFDF917F
:1001F000CF911F910F9108951F920F920FB60F92FA
:1002000011248F939F93EF93FF93E0914003F0911C
:1002100041038CB1E35BFD4F80838091400390915B
:1002200041030196909341038093400381E08093C2
:10023000C401FF91EF919F918F910F900FBE0F908E
:100240001F901895EF92FF920F931F93CF93DF9318
:10025000CDB7DEB7A3970FB6F894DEBF0FBECDBF04
:100260008B0110924103109240039F938F9386E875
:1002700090E09F938F93CE0101967C019F938F9383
:100280000E94CB03C7010E94E6000E94A4006AE01E
:1002900084E990E00E9488008FE493EC0197F1F7E5
:1002A00000C000000F900F900F900F900F900F90D4
:1002B000E0914003F0914103E35BFD4F80818E3379
:1002C00009F04FC010924103109240030F2EFDE43D
:1002D000EF2EF2E0FF2EF02DF70101900020E9F75C
:1002E0003197AF014D54524060E070E0C7010E9469
:1002F0009C03C8010E94E6008AE10E94E2000E947D
:10030000AC0060E18FE990E00E9488009FE72AE15D
:1003100086E0915020408040E1F700C000000E943C
:10032000A4001092410310924003F70101900020B5
:10033000E9F73197AF014D54524060E070E0C701DA
:100340000E949C03CE010196FC0101900020E9F778
:100350003197AF01481B590B60E070E00E949C038D
:100360000AC080914003909141030196909341030C
:10037000809340039DCFA3960FB6F894DEBF0FBEC7
:10038000CDBFDF91CF911F910F91FF90EF90089516
:10039000CF93DF931092410310924003E09140030A
:1003A000F0914103E35BFD4F80818D3049F0E09196
:1003B0004003F0914103E35BFD4F80818A3051F4AB
:1003C0008091400390914103019690934103809363
:1003D0004003E4CF80EC0E944900C0E0D0E019C0A7
:1003E000E0914003F0914103E35BFD4F80810E9467
:1003F000B000809140039091410301969093410396
:10040000809340032196CF30D10519F480E80E94F3
:100410004900E0914003F0914103E35BFD4F80818F
:100420008D30F1F61092410310924003EDE4F2E0BA
:1004300001900020E9F73197AF014D54524060E040
:1004400070E08DE492E00E949C03DF91CF910895CB
:10045000AF92BF92CF92DF92EF92FF920F931F93D2
:10046000CF93DF9300D0CDB7DEB7E12CF12C20E69F
:10047000E2162AEEF20608F04EC0EDE4F2E001903A
:100480000020E9F73197ED54F2406F01D1F183EF8D
:1004900091E00197F1F700C000009FEFE91AF90A17
:1004A000ADE4B2E00D900020E9F71197AD54B240F1
:1004B000EA17FB0731F51EC08A818983F801E35BE7
:1004C000FD4F80818A8342E050E061E171E0CE011E
:1004D00001960E94A303892B51F0C501019622E0E9
:1004E000A216B10419F40E94C80115C05C010F5F87
:1004F0001F4F04C000E010E0A12CB12C0C151D050D
:10050000DCF289EF90E00197F1F700C000009FEF67
:10051000E91AF90AACCF0F900F90DF91CF911F919C
:100520000F91FF90EF90DF90CF90BF90AF90089524
:1005300080EC0E9449008CEB90E00E94E6002FE9DD
:1005400086E891E0215080409040E1F700C0000033
:1005500062EC70E08DE492E00E94B103892B71F1AE
:100560000E94280280EAEDE4F2E0DF011D928A9504
:10057000E9F7BFE32DE083E0B15020408040E1F790
:1005800000C000000E94A4000E94A80069E085EC61
:1005900090E00E94880080EC0E9449008FEC90E07F
:1005A0000E94E6000E9428029FE3ADE0B3E0915074
:1005B000A040B040E1F700C0000008950E94A800EC
:1005C00065E08AED90E00E948800B2CF87B38F7912
:1005D00087BB87B3806887BB80E48DB90895779B1C
:1005E000FECF8FB108958FEF87BB87E081BB10925C
:1005F0004103109240030E945A000E94E60260E804
:1006000075E280E090E00E94C20078940E94A80009
:1006100060E18BE591E00E9488002FEB87E299E092
:10062000215080409040E1F700C000000E94A400EB
:100630000E94A80062E08CE691E00E9488000E947F
:1006400098020E94A4002FE78AE196E021508040A2
:100650009040E1F700C000000E94A4000E94EF0259
:10066000823011F56AE08FE691E00E94880087EA07
:1006700091E60197F1F700C000006AE771E08AE9AE
:1006800091E00E9422010E94A4006DE087EA91E0BF
:100690000E9488009FE926E881E091502040804038
:1006A000E1F700C0000023C0833009F56EE085EB60
:1006B00091E00E94880087EA91E60197F1F700C077
:1006C00000006AE771E08AE991E00E9422010E943D
:1006D000A4006DE087EA91E00E9488009FE926E887
:1006E00081E0915020408040E1F700C0000080E0B0
:1006F00090E00895A1E21A2EAA1BBB1BFD010DC0BC
:10070000AA1FBB1FEE1FFF1FA217B307E407F507C1
:1007100020F0A21BB30BE40BF50B661F771F881F9D
:10072000991F1A9469F760957095809590959B0133
:10073000AC01BD01CF010895DC0101C06D934150B2
:100740005040E0F70895FB01DC014150504030F08B
:100750008D910190801919F40020B9F7881B990B2D
:100760000895FB0151915523A9F0BF01DC014D9182
:1007700045174111E1F759F4CD010190002049F0EE
:100780004D9140154111C9F3FB014111EFCF81E0BB
:1007900090E001970895AEE0B0E0E1EDF3E00C9455
:1007A0008C060D891E8986E08C831A8309838FEF5E
:1007B0009FE79E838D83AE01475E5F4F6F89788D83
:1007C000CE0101960E94ED03EF81F885E00FF11F45
:1007D00010822E96E4E00C94A806ABE0B0E0E3EFC4
:1007E000F3E00C947E066C017B018A01FC01178208
:1007F0001682838181FFCCC1CE0101963C01F601B6
:100800009381F70193FD859193FF81917F01882367
:1008100009F4BAC1853239F493FD859193FF819132
:100820007F01853229F4B60190E00E94E405E7CF0C
:10083000912C212C312CFFE1F315D8F08B3279F07B
:1008400038F4803279F08332A1F4232D20611DC069
:100850008D3261F0803369F4232D216016C0832D21
:100860008260382EE32DE4603E2E2AC0F32DF8601E
:100870001DC037FC2DC020ED280F2A3040F08E32ED
:10088000B9F436FC81C1232D2064322E19C036FE06
:1008900006C08AE0989E200D1124922E11C0EAE035
:1008A0002E9E200D1124222EF32DF0623F2E08C023
:1008B0008C3621F4832D8068382E02C0883641F4AE
:1008C000F70193FD859193FF81917F018111B3CF52
:1008D000982F9F7D9554933028F40C5F1F4F9FE312
:1008E00099830DC0833631F0833771F0833509F079
:1008F00059C021C0F801808189830E5F1F4F882471
:100900008394912C530113C02801F2E04F0E511C27
:10091000F801A080B18036FE03C0692D70E002C0EE
:100920006FEF7FEFC5010E94D9054C018201F32DC5
:10093000FF773F2E16C0280122E0420E511CF8011D
:10094000A080B18036FE03C0692D70E002C06FEF59
:100950007FEFC5010E94CE054C01F32DF0683F2EBC
:10096000820133FC1BC0822D90E088169906B0F4FA
:10097000B60180E290E00E94E4052A94F4CFF501EC
:1009800037FC859137FE81915F01B60190E00E94AE
:10099000E40521102A9421E0821A9108811491041F
:1009A00071F7E8C0843611F0893641F5F80137FE59
:1009B00007C060817181828193810C5F1F4F08C0E5
:1009C00060817181072E000C880B990B0E5F1F4F01
:1009D000F32DFF763F2E97FF09C090958095709577
:1009E00061957F4F8F4F9F4FF0683F2E2AE030E098
:1009F000A3010E942006882E861845C0853731F451
:100A0000232D2F7EB22E2AE030E025C0932D997F32
:100A1000B92E8F36C1F018F4883579F0B5C080371B
:100A200019F0883721F0B0C0E92FE061BE2EB4FE86
:100A30000DC0FB2DF460BF2E09C034FE0AC0292F63
:100A40002660B22E06C028E030E005C020E130E08C
:100A500002C020E132E0F801B7FE07C06081718179
:100A6000828193810C5F1F4F06C06081718180E09D
:100A700090E00E5F1F4FA3010E942006882E86186B
:100A8000FB2DFF773F2E36FE0DC0232D2E7FA22E8D
:100A9000891458F434FE0BC032FC09C0832D8E7EBD
:100AA000A82E05C0B82CA32C03C0B82C01C0B92CAB
:100AB000A4FE0FC0FE01E80DF11D8081803321F4FA
:100AC0009A2D997EA92E09C0A2FE06C0B394B394B4
:100AD00004C08A2D867809F0B394A3FC11C0A0FE4F
:100AE00006C0B21488F4280C922C9B180EC0B214C5
:100AF00060F4B60180E290E00E94E405B394F7CF81
:100B0000B21418F42B1802C0982C212CA4FE10C08B
:100B1000B60180E390E00E94E405A2FE17C0A1FCAC
:100B200003C088E790E002C088E590E0B6010CC001
:100B30008A2D867859F0A1FE02C08BE201C080E2C6
:100B4000A7FC8DE2B60190E00E94E405891438F418
:100B5000B60180E390E00E94E4059A94F7CF8A946E
:100B6000F301E80DF11D8081B60190E00E94E405DB
:100B70008110F5CF222009F442CEB60180E290E048
:100B80000E94E4052A94F6CFF6018681978102C07F
:100B90008FEF9FEF2B96E2E10C949A06FC010590F3
:100BA000615070400110D8F7809590958E0F9F1F6F
:100BB0000895FC016150704001900110D8F78095B4
:100BC00090958E0F9F1F08950F931F93CF93DF93E0
:100BD000FB01238121FD03C08FEF9FEF2CC022FF7B
:100BE00016C046815781248135814217530744F44A
:100BF000A081B1819D012F5F3F4F318320838C9372
:100C0000268137812F5F3F4F3783268314C08B01A6
:100C1000EC01FB010084F185E02D0995892BE1F6BB
:100C2000D80116968D919C911797019617969C93D3
:100C30008E931697CE01DF91CF911F910F9108955A
:100C4000FA01AA27283051F1203181F1E8946F93FD
:100C50006E7F6E5F7F4F8F4F9F4FAF4FB1E03ED0A3
:100C6000B4E03CD0670F781F891F9A1FA11D680F41
:100C7000791F8A1F911DA11D6A0F711D811D911D74
:100C8000A11D20D009F468943F912AE0269F1124E9
:100C90003019305D3193DEF6CF010895462F47704D
:100CA000405D4193B3E00FD0C9F7F6CF462F4F70A8
:100CB000405D4A3318F0495D31FD4052419302D006
:100CC000A9F7EACFB4E0A6959795879577956795AC
:100CD000BA95C9F700976105710508959B01AC01AC
:100CE0000A2E06945795479537952795BA95C9F7D3
:100CF000620F731F841F951FA01D08952F923F92AE
:100D00004F925F926F927F928F929F92AF92BF921B
:100D1000CF92DF92EF92FF920F931F93CF93DF93C7
:100D2000CDB7DEB7CA1BDB0B0FB6F894DEBF0FBE24
:100D3000CDBF09942A88398848885F846E847D8471
:100D40008C849B84AA84B984C884DF80EE80FD8073
:100D50000C811B81AA81B981CE0FD11D0FB6F894E9
:0E0D6000DEBF0FBECDBFED010895F894FFCFAA
:100D6E0041542B434D47443D25640D0041542B43C4
:100D7E004D4744413D2244454C20414C4C220D00F0
:100D8E00434D54493A0041542B434D47533D222580
:100D9E0073220D0053656E64696E672E2E2E0053FE
:100DAE00656E74207375636365737366756C00414D
:100DBE00544425733B0D004154480D0041544530B9
:100DCE000D004F4B0054657874204D6F64650041E3
:100DDE00542B434D47463D310D004572726F7200E4
:100DEE002B434D4752004E6F206D657373616765DF
:100DFE000041542B434D47523D25640D0041542B69
:100E0E0043434C4B3F0D0A0041542B434C54533D2E
:100E1E00310D0A00415426570D0A002B43434C4B0B
:100E2E003A00256325630047534D204461746520C5
:100E3E00262054696D65203A00253032642E253007
:100E4E0032642E25303264203A20253032642F252C
:100E5E003032642F253032640D0A0047534D20493D
:100E6E006E697469616C697A696E670041540057E6
:100E7E0041544552204C4F572100576174657220E2
:100E8E006C6F772120506C656173652066696C6CA0
:100E9E00207468652054616E6B002B3934373633FD
:100EAE00313833393738004D455353414745205378
:100EBE00454E5421004E55545249454E54204C4FE8
:040ECE0057210000A8
:00000001FF
