:100000000C9487000C94A4000C94A4000C94A400FD
:100010000C94A4000C94A4000C94A4000C94A400D0
:100020000C94A4000C94A4000C94A4000C94A400C0
:100030000C94A4000C94A4000C94A4000C94A400B0
:100040000C94A4000C94A4000C94FA020C94A40048
:100050000C94A4000C94A4000C94A4000C94A40090
:100060000C94A4000C94A4000C94A4000C94A40080
:100070000C94A4000C94A4000C94A4000C94A40070
:100080000C94A4000C94A4000C94A40007634236C2
:10009000B79BD8A71A39685618AEBAAB558C1D3C19
:1000A000B7CC5763BD6DEDFD753EF6177231BF00DD
:1000B0000000803F08000000BE922449123EABAA17
:1000C000AA2ABECDCCCC4C3E00000080BEABAAAA72
:1000D000AA3E00000000BF000000803F00000000BA
:1000E00000084178D3BB4387D1133D190E3CC3BDF3
:1000F0004282AD2B3E68EC8276BED98FE1A93E4CA0
:1001000080EFFFBE01C4FF7F3F000000000011240C
:100110001FBECFEFD0E1DEBFCDBF12E0A0E0B1E067
:10012000E0E6FFE102C005900D92A432B107D9F7D5
:1001300023E0A4E2B2E001C01D92AC31B207E1F7C6
:100140000E94C9070C94AE0F0C9400002AB12869D4
:100150002AB9E5E9F0E020812E602083DC01CB01A3
:10016000880F991FAA1FBB1F880F991FAA1FBB1FAB
:100170009C01AD01220F331F441F551F220F331F57
:10018000441F551F60E072E18AE790E00E94140C62
:100190008FEF820F89B9DA01C9010197A109B1096D
:1001A000892F9A2FAB2FBB278093900008958CB98D
:1001B0005D9BFECF08950F931F93CF93DF938C0128
:1001C000C0E0D0E003C00E94D7002196F801EC0FF8
:1001D000FD1F80818111F7CFDF91CF911F910F918A
:1001E00008958BBB84E088BB8FEC97E00197F1F713
:1001F00000C0000018BA9FE728E381E0915020403A
:100200008040E1F700C00000089588E30E94F100FB
:100210008FEC97E00197F1F700C0000081E00E94A9
:10022000F1008FEC97E00197F1F700C000008EE03D
:100230000E94F1008FEC97E00197F1F700C00000F9
:1002400008958BBB85E088BB8FEC97E00197F1F7B1
:1002500000C0000081E088BB8FEC97E00197F1F7C8
:1002600000C000000895EF92FF921F93CF93DF9399
:100270007C01162FC0E0D0E007C0F701EC0FFD1F96
:1002800080810E9421012196812F90E0C817D90713
:10029000A4F3DF91CF911F91FF90EF90089590E02C
:1002A000C097089581E00E94F100089580E80E94BF
:1002B000F100089580EC0E94F10008958BBB88B393
:1002C0008D7F88BB88B3856088BB82E08A95F1F713
:1002D00000C088B38B7F88BB8FEC97E00197F1F764
:1002E00000C0000008958FEE82BB8FE19EE401976D
:1002F000F1F700C00000809B30C0819B30C0829B22
:1003000030C08FED82BB8FE19EE40197F1F700C012
:100310000000809B28C0819B28C0829B28C08FEB57
:1003200082BB8FE19EE40197F1F700C00000809B43
:1003300020C0819B20C0829B20C08FE782BB8FE1C1
:100340009EE40197F1F700C00000809B18C0819BDC
:1003500018C0829918C083E2089581E3089582E36A
:10036000089583E3089584E3089585E3089586E37B
:10037000089587E3089588E3089589E308958AE25C
:10038000089580E3089581E6089581E602C00E9401
:1003900073018136E1F3089584B3816084BB0895CD
:1003A00085B3816085BB88E28A95F1F785B38E7F3E
:1003B00085BB08958F929F92AF92BF92CF92DF92AA
:1003C000EF92FF920F931F93CF93DF93D0E0C0E0A3
:1003D000B0E0A0E0F0E0F12C00E010E015C0999949
:1003E00025C02D2F3C2F4B2F5A2F6F2F7F2D802F65
:1003F000912FA1E00E94540CD22FC32FB42FA52F10
:10040000F62FF72E082F192F2D2F3C2F4B2F5A2F59
:100410006F2F7F2D802F912F2F3B37424940510561
:100420006105710581059105D1F2C8F22D2F3C2F90
:100430004B2F5A2F6F2F7F2D802F912F203C37422B
:1004400049405105610571058105910509F469C0AF
:100450001FBC82E08EBD1DBC1CBCD0E0C0E0B0E083
:10046000A0E0F0E0F12C00E010E01AC0999B2AC057
:100470008CB59DB581369A4E28F52D2F3C2F4B2FEC
:100480005A2F6F2F7F2D802F912FA1E00E94540CA7
:10049000D22FC32FB42FA52FF62FF72E082F192FE9
:1004A0002D2F3C2F4B2F5A2F6F2F7F2D802F912FC9
:1004B0002F3B374249405105610571058105910582
:1004C000A9F2A0F22D2F3C2F4B2F5A2F6F2F7F2DEB
:1004D000802F912F203C374249405105610571051D
:1004E0008105910519F18CB49DB41EBC282D392DC0
:1004F00040E050E060E070E080E090E02036EAEE1E
:100500003E0741055105610571058105910509F019
:1005100090F401E00E94380C622F732F842F952FE6
:100520000EC06FEF7FEF8FEF9FEF09C06EEF7FEF91
:100530008FEF9FEF04C06EEF7FEF8FEF9FEFDF91A4
:10054000CF911F910F91FF90EF90DF90CF90BF90D0
:10055000AF909F908F90089581B3886081BB82B3E4
:10056000877F82BB8FE39CE90197F1F700C0000011
:1005700082B3886082BB089581B3877F81BB8399F2
:10058000FECF839BFECF8399FECF089520E030E01D
:1005900019C0839BFECF80E58A95F1F7839B09C044
:1005A0008091250290E0880F991F81608093250239
:1005B00005C080912502880F809325028399FECF84
:1005C0002F5F3F4F2830310524F380912502089595
:1005D00080E487B987E886B90895877097B1987FD6
:1005E000892B87B986B1806486B93699FECF84B1EC
:1005F00095B108951F920F920FB60F9211248F9309
:100600009F93EF93FF93E0911903F0911A038CB13C
:10061000E85DFD4F80838091190390911A03019644
:1006200090931A038093190381E080932402FF9131
:10063000EF919F918F910F900FBE0F901F90189583
:10064000EF92FF920F931F93CF93DF93CDB7DEB757
:10065000A3970FB6F894DEBF0FBECDBF8B011092EB
:100660001A03109219039F938F9380E091E09F9358
:100670008F93CE0101967C019F938F930E94B40CBF
:10068000C7010E94DB009FEF21EE84E091502040E3
:100690008040E1F700C000000F900F900F900F9086
:1006A0000F900F90E0911903F0911A03E85DFD4F50
:1006B00080818E3309F046C010921A0310921903FC
:1006C0000F2EF8E2EF2EF2E0FF2EF02DF701019051
:1006D0000020E9F73197AF014852524060E070E0E6
:1006E000C7010E94600CC8010E94DB008AE10E94E1
:1006F000D7009FEF22E587E0915020408040E1F74E
:1007000000C0000010921A0310921903F701019023
:100710000020E9F73197AF014852524060E070E0A5
:10072000C7010E94600CCE010196FC0101900020DF
:10073000E9F73197AF01481B590B60E070E00E9468
:10074000600C0AC08091190390911A03019690934E
:100750001A0380931903A6CFA3960FB6F894DEBFB1
:100760000FBECDBFDF91CF911F910F91FF90EF9002
:100770000895CF93DF9310921A0310921903E0911A
:100780001903F0911A03E85DFD4F80818D3049F027
:10079000E0911903F0911A03E85DFD4F80818A30E2
:1007A00051F48091190390911A03019690931A03C2
:1007B00080931903E4CF80EC0E94F100C0E0D0E008
:1007C00019C0E0911903F0911A03E85DFD4F808193
:1007D0000E945E018091190390911A0301969093F3
:1007E0001A03809319032196CF30D10519F480E8BC
:1007F0000E94F100E0911903F0911A03E85DFD4FAA
:1008000080818D30F1F610921A0310921903E8E2FC
:10081000F2E001900020E9F73197AF0148525240D1
:1008200060E070E088E292E00E94600CDF91CF917E
:100830000895AF92BF92CF92DF92EF92FF920F9303
:100840001F93CF93DF9300D0CDB7DEB7E12CF12C0F
:1008500020E6E2162AEEF20608F04EC0E8E2F2E0E8
:1008600001900020E9F73197E852F2406F01D1F191
:100870008FE99FE00197F1F700C000009FEFE91AB0
:10088000F90AA8E2B2E00D900020E9F71197A8520A
:10089000B240EA17FB0731F51EC08A818983F8014F
:1008A000E85DFD4F80818A8342E050E06EE071E0B8
:1008B000CE0101960E94670C892B51F0C50101966B
:1008C00022E0A216B10419F40E94B90315C05C011C
:1008D0000F5F1F4F04C000E010E0A12CB12C0C15DD
:1008E0001D05DCF28FEC97E00197F1F700C00000E6
:1008F0009FEFE91AF90AACCF0F900F90DF91CF91DB
:100900001F910F91FF90EF90DF90CF90BF90AF902D
:10091000089580EC0E94F10081E191E00E94DB00EB
:100920002FEF84E39CE0215080409040E1F700C02D
:10093000000067E171E088E292E00E94750C892B6B
:1009400061F10E94190480EAE8E2F2E0DF011D9201
:100950008A95E9F7BFEF29E688E1B1502040804051
:10096000E1F700C000000E94520169E08AE191E0D5
:100970000E94330180EC0E94F10084E291E00E9429
:10098000DB000E9419049FEFA9E6B8E19150A04056
:10099000B040E1F700C00000089565E08FE291E00B
:1009A0000E943301B6CF4F925F926F927F928F92E7
:1009B0009F92AF92BF92CF92DF92EF92FF920F93EE
:1009C0001F93CF93DF93CDB7DEB764970FB6F8943C
:1009D000DEBF0FBECDBF00E010E00E94C5018093D6
:1009E000CA020E9421018091CA028332C9F00E948A
:1009F0004F01F801EE0FFF1F21E030E02C0F3D1FEB
:100A0000E20FF31F918380830F5F1F4F3FEF82E55B
:100A100097E0315080409040E1F700C00000DDCF0A
:100A2000580121E0A21AB108E12CF12C812C912C63
:100A30003BC0F701EE0FFF1F81E090E08C0F9D1F80
:100A4000E80FF91FC080D180B5010B2C000C880B7A
:100A5000990B0E9496099B01AC0160E070E080E276
:100A600091E40E948F0A2B013C01B601DD0C880B3A
:100A7000990B0E949609A30192010E94220A2B0160
:100A80003C01B401990C880B990B0E949609A301B3
:100A900092010E9480080E945E094B0191E0A91A10
:100AA000B1082FEFE21AF20AE016F10614F281E023
:100AB0000E94F100C40164960FB6F894DEBF0FBE29
:100AC000CDBFDF91CF911F910F91FF90EF90DF90FD
:100AD000CF90BF90AF909F908F907F906F905F90DE
:100AE0004F900895CF93DF93CDB7DEB72A970FB617
:100AF000F894DEBF0FBECDBF0E94E8020E945201F3
:100B00008FE097E20197F1F700C0000080E00E94BB
:100B1000ED02BC0180E090E00E9494092AE037EDEC
:100B200043E25CE30E94220A26E636E646E050E411
:100B30000E94EC086B017C0120E030E040E251E4CF
:100B40000E94220A4B015C01A701960160E070E05F
:100B500080EA90E40E947F089B01AC01C501B401CA
:100B60000E94EC086B017C010E94560169E085E35C
:100B700091E00E943301C701B6010E945E09DC01C9
:100B8000CB014AE0BE016F5F7F4F0E948F0C65E092
:100B9000CE0101960E9433018FE19EE40197F1F7A7
:100BA00000C00000B3CF0F931F93CF93DF93CDB757
:100BB000DEB72A970FB6F894DEBF0FBECDBF0E94F6
:100BC00052010E9456016BE08EE391E00E943301D6
:100BD0000E945A0167E08AE491E00E9433010E947A
:100BE000C5018093CA020E94D3049F938F9382E52C
:100BF00091E09F938F938E010F5F1F4F1F930F9371
:100C00000E94B40C81E00E94F1006FE085E591E064
:100C10000E94330180EC0E94F1006AE0C8010E944A
:100C200033012FEF89E698E1215080409040E1F7B1
:100C300000C000000F900F900F900F900F900F903A
:100C40002A960FB6F894DEBF0FBECDBFDF91CF91CD
:100C50001F910F910895CF93DF9300D000D0CDB7AF
:100C6000DEB72FEF80E792E0215080409040E1F71F
:100C700000C000000E9452010E94CC010E94D001DD
:100C80000E94DA016F3F2FEF720789F40E94520130
:100C900062E083EC91E00E9433018FEF99E628E156
:100CA000815090402040E1F700C00000E7CF80E095
:100CB00090E00E94940926E933E44BE05DE30E9452
:100CC000220A20E030E040E05FE30E94220A9B011C
:100CD000AC0160E070E088E492E40E947F080E942A
:100CE0005E097093C9026093C80220912602309178
:100CF00027022617370711F00E9452010E94560161
:100D00006BE084E691E00E9433014AE0BE016F5F30
:100D10007F4F8091C8029091C9020E948F0C63E0BE
:100D2000CE0101960E94330162E08FE691E00E94BD
:100D300033018091C8029091C90290932702809359
:100D400026028FE59AEE0197F1F700C0000080912E
:100D5000C8029091C9020A973CF40E945A016DE0C2
:100D600082E791E00E9433018091C8029091C9020C
:100D70000A973CF00E945A016CE08FE791E00E94D4
:100D800033010E94C5018093CA028A3251F09FEF5D
:100D90002BE48DE1915020408040E1F700C000003D
:100DA0006DCF8A3209F05DCF0F900F900F900F90AA
:100DB000DF91CF910895CF93DF9300D000D01F92A1
:100DC000CDB7DEB78FEF82B90E9452010E94560163
:100DD0000E94AC020E94BC020E94C60280931803CB
:100DE0000E94C6028093CB020E94C6028093170322
:100DF0000E94C60280931B030E94C6028093CC020D
:100E0000E0911803F0E09091CB029F01290F311D72
:100E100090911703290F311D90911B03290F311D4C
:100E2000482F50E02417350731F065E08CE891E059
:100E30000E94330159C04AE0BE016F5F7F4FCF016E
:100E40000E948F0C62E082E991E00E94330162E02F
:100E5000CE0101960E94330161E085E991E00E9494
:100E600033018091CB024AE0BE016F5F7F4F90E07B
:100E70000E948F0C62E0CE0101960E94330161E076
:100E800087E991E00E943301809117034AE0BE0197
:100E90006F5F7F4F90E00E948F0C62E089E991E0E4
:100EA0000E94330162E0CE0101960E94330161E0AD
:100EB00085E991E00E94330180911B034AE0BE0165
:100EC0006F5F7F4F90E00E948F0C62E0CE01019631
:100ED0000E9433018FED0E94210162E08CE991E0D4
:100EE0000E9433010E945A012FEF84E39CE02150BD
:100EF00080409040E1F700C00000209117038091EE
:100F00001B0390E0820F911D49972CF466E08FE956
:100F100091E00E9433012091170380911B0390E020
:100F2000820F911D4E972CF067E086EA91E00E94B7
:100F30003301209118038091CB0290E0820F911D24
:100F40008C3491052CF467E08EEA91E00E94330125
:100F50002FEF80E792E0215080409040E1F700C001
:100F600000000E94C5018093CA028A3251F02FEF1F
:100F70008BE49DE1215080409040E1F700C00000EB
:100F800023CF0F900F900F900F900F90DF91CF9184
:100F900008958FEF8ABB87E087BB80EF81BB0E94FB
:100FA00005016EE086EB91E00E9433012FEF8BE4A8
:100FB0009DE1215080409040E1F700C000000E9478
:100FC0005A0160E186EC91E00E943301AFEFB9E68F
:100FD00028E1A150B0402040E1F700C000000E948D
:100FE00052010E9456016AE086ED91E00E943301B1
:100FF0000E945A016CE081EE91E00E9433018FEF74
:101000009BE4ADE181509040A040E1F700C00000BA
:101010000E9452016FE08EEE91E00E9433010E9427
:10102000C5018333B9F028F4813349F0823379F074
:10103000EFCF8533A9F088F08633A1F0E9CF0E9485
:1010400052016CE081EE91E00E943301E1CF0E94F9
:10105000D305DECF0E942B06DBCF0E94DB06D8CF64
:101060000E94720510921A03109219038CE3EBEDA3
:10107000F2E0DF011D928A95E9F70E94050160E820
:1010800075E280E090E00E94A60078940E945601EC
:1010900060E18DEF91E00E943301BFEF2DE389E421
:1010A000B15020408040E1F700C000000E94520192
:1010B00062E08EE092E00E9433010E9489040E9467
:1010C0005201C0E0D0E017C061E172E084E192E03B
:1010D0000E94200362E081E292E00E9433019FEFD0
:1010E000A3EDB0E39150A040B040E1F700C0000094
:1010F0000E9452012196C230D10534F389CF505855
:10110000BB27AA270E9497080C94E8090E94DA09D5
:1011100038F00E94E10920F039F49F3F19F426F4D9
:101120000C94D7090EF4E095E7FB0C94D109E92F54
:101130000E94F90958F3BA176207730784079507E5
:1011400020F079F4A6F50C941B0A0EF4E0950B2E12
:10115000BA2FA02D0B01B90190010C01CA01A00109
:101160001124FF27591B99F0593F50F4503E68F164
:101170001A16F040A22F232F342F4427585FF3CFA5
:10118000469537952795A795F0405395C9F77EF476
:101190001F16BA0B620B730B840BBAF09150A1F0BF
:1011A000FF0FBB1F661F771F881FC2F70EC0BA0F45
:1011B000621F731F841F48F4879577956795B795CD
:1011C000F7959E3F08F0B0CF9395880F08F09927C8
:1011D000EE0F9795879508950E9400090C94E809F1
:1011E0000E94E10958F00E94DA0940F029F45F3FBB
:1011F00029F00C94D10951110C941C0A0C94D709B4
:101200000E94F90968F39923B1F3552391F3951BD3
:10121000550BBB27AA2762177307840738F09F5F17
:101220005F4F220F331F441FAA1FA9F335D00E2E84
:101230003AF0E0E832D091505040E695001CCAF7F1
:101240002BD0FE2F29D0660F771F881FBB1F2617B4
:1012500037074807AB07B0E809F0BB0B802DBF018B
:10126000FF2793585F4F3AF09E3F510578F00C945A
:10127000D1090C941C0A5F3FE4F3983ED4F38695A1
:1012800077956795B795F7959F5FC9F7880F911D7B
:101290009695879597F90895E1E0660F771F881F67
:1012A000BB1F621773078407BA0720F0621B730B1A
:1012B000840BBA0BEE1F88F7E09508950E9465092C
:1012C0006894B1110C941C0A08950E94010A88F0D8
:1012D0009F5798F0B92F9927B751B0F0E1F0660FFA
:1012E000771F881F991F1AF0BA95C9F714C0B1303B
:1012F00091F00E941B0AB1E008950C941B0A672F1D
:10130000782F8827B85F39F0B93FCCF38695779569
:101310006795B395D9F73EF4909580957095619552
:101320007F4F8F4F9F4F0895E89409C097FB3EF47D
:1013300090958095709561957F4F8F4F9F4F992322
:10134000A9F0F92F96E9BB279395F69587957795A0
:101350006795B795F111F8CFFAF4BB0F11F460FF60
:101360001BC06F5F7F4F8F4F9F4F16C0882311F0B8
:1013700096E911C0772321F09EE8872F762F05C0CC
:10138000662371F096E8862F70E060E02AF09A9567
:10139000660F771F881FDAF7880F9695879597F95C
:1013A000089597F99F6780E870E060E008959FEFE7
:1013B00080EC089500240A941616170618060906EC
:1013C000089500240A9412161306140605060895BB
:1013D000092E0394000C11F4882352F0BB0F40F443
:1013E000BF2B11F460FF04C06F5F7F4F8F4F9F4F83
:1013F000089557FD9058440F551F59F05F3F71F005
:101400004795880F97FB991F61F09F3F79F087956B
:101410000895121613061406551FF2CF4695F1DFF4
:1014200008C0161617061806991FF1CF8695710584
:10143000610508940895E894BB2766277727CB01B8
:1014400097F908950E94350A0C94E8090E94DA0978
:1014500038F00E94E10920F0952311F00C94D10995
:101460000C94D70911240C941C0A0E94F90970F3FA
:10147000959FC1F3950F50E0551F629FF001729F39
:10148000BB27F00DB11D639FAA27F00DB11DAA1F48
:10149000649F6627B00DA11D661F829F2227B00D95
:1014A000A11D621F739FB00DA11D621F839FA00D20
:1014B000611D221F749F3327A00D611D231F849F70
:1014C000600D211D822F762F6A2F11249F575040C7
:1014D0009AF0F1F088234AF0EE0FFF1FBB1F661F42
:1014E000771F881F91505040A9F79E3F510580F00B
:1014F0000C94D1090C941C0A5F3FE4F3983ED4F39A
:10150000869577956795B795F795E7959F5FC1F7AE
:10151000FE2B880F911D9695879597F90895FA01EE
:10152000EE0FFF1F309621053105A1F16115710500
:1015300061F48038BFE39B0749F1689490388105D6
:1015400061F08038BFEF9B0741F099234AF5FF3FD8
:10155000E1053105210519F1E8940894E795D901D1
:10156000AA2329F4AB2FBE2FF85FD0F310C0FF5F82
:1015700070F4A695E0F7F73950F019F0FF3A38F417
:101580009F779F930DD00F9007FC9058089546F0D9
:101590000C94D70960E070E080E89FE308954FE77E
:1015A0009F775F934F933F932F930E948A0B2F91C6
:1015B0003F914F915F910E94220A0C94E70A29F40F
:1015C00016F00C94D1090C941B0A0C94D7090E94B4
:1015D000010AA8F39638A0F707F80F92E8942BE3D6
:1015E0003AEA48EB5FE70E94380A0F920F920F9297
:1015F0004DB75EB70F920E94D20BECE8F0E00E946C
:10160000190B4F915F91EF91FF91E595EE1FFF1F31
:1016100049F0FE57E0684427EE0F441FFA95E1F7C2
:101620004195550B0E944C0B0F9007FE0C94400BFC
:101630000895DF93CF931F930F93FF92EF92DF9262
:101640007B018C01689406C0DA2EEF010E94350AF6
:10165000FE01E894A5912591359145915591A6F308
:10166000EF010E949708FE019701A801DA9469F73B
:10167000DF90EF90FF900F911F91CF91DF91089530
:101680009B01AC0160E070E080E89FE30C94EC0803
:101690000C94D1090C94060C0E94010AD8F39923EA
:1016A000C9F3940F511DA3F39150504094F059F099
:1016B000882332F0660F771F881F91505040C1F782
:1016C0009E3F51052CF7880F911D9695879597F9A8
:1016D00008955F3FACF0983E9CF0BB2786957795C8
:1016E0006795B79508F4B1609395C1F7BB0F58F7AC
:1016F00011F460FFE8CF6F5F7F4F8F4F9F4FE3CFB5
:101700000C941C0A16F00C94060C0C94D7096894DF
:101710000C94D1090E94010AA8F39923C1F3AEF3F6
:10172000DF93CF931F930F93FF92C92FDD27882359
:101730002AF02197660F771F881FDAF720E030E044
:1017400040E85FEB9FE3883920F0803E38F0219637
:101750008F770E948008E4EBF0E004C00E948008CC
:10176000E1EEF0E00E94190B8B01BE01EC01FB2EB3
:101770006F5771097595771F880B990B0E94960911
:1017800028E132E741E35FE30E94350AAF2D98017B
:10179000AE01FF900F911F91CF91DF910E949708AA
:1017A0000C94E809FA01DC01AA0FBB1F9B01AC01F4
:1017B000BF5728F4222733274427507820C0B75139
:1017C00090F4AB2F0024469537952795011CA395DF
:1017D000D2F3002071F0220F331F441FB395DAF3C8
:1017E0000ED00C947F0861307105A0E88A07B946D5
:1017F00030F49B01AC0166277727882790783096D4
:1018000021F0208331834283538308959F3F31F039
:10181000915020F4879577956795B795880F911D1E
:101820009695879597F90895A1E21A2EAA1BBB1BDE
:10183000FD010DC0AA1FBB1FEE1FFF1FA217B3079C
:10184000E407F50720F0A21BB30BE40BF50B661FB2
:10185000771F881F991F1A9469F760957095809576
:1018600090959B01AC01BD01CF01089597FB10F845
:10187000169400080F93083098F00850232F342F47
:10188000452F562F672F782F892F902DF4CF059451
:1018900097958795779567955795479537952795A8
:1018A0000A95AAF70F9108950024A7FD00942A0F26
:1018B000301D401D501D601D701D801D901D089520
:1018C000DC0101C06D9341505040E0F70895FB01E9
:1018D000DC014150504030F08D910190801919F495
:1018E0000020B9F7881B990B0895FB0151915523EE
:1018F000A9F0BF01DC014D9145174111E1F759F401
:10190000CD010190002049F04D9140154111C9F3DE
:10191000FB014111EFCF81E090E001970895BB27D3
:101920004A3031F4992322F4BDE2909581959F4F7E
:101930000C949B0CBB27FB015527AA27880F991FE6
:10194000AA1FA41710F0A41B83955051B9F7A05DEE
:10195000AA3308F0A95DA193009779F7B111B1936B
:101960001192CB010C94CD0EAEE0B0E0EAEBFCE0BE
:101970000C94850F0D891E8986E08C831A83098358
:101980008FEF9FE79E838D83AE01475E5F4F6F8928
:10199000788DCE0101960E94D60CEF81F885E00F7C
:1019A000F11F10822E96E4E00C94A10FABE0B0E0A2
:1019B000ECEDFCE00C94770F6C017B018A01FC01DB
:1019C00017821682838181FFCCC1CE0101963C0132
:1019D000F6019381F70193FD859193FF81917F013A
:1019E000882309F4BAC1853239F493FD859193FFB8
:1019F00081917F01853229F4B60190E00E94DD0ECD
:101A0000E7CF912C212C312CFFE1F315D8F08B324C
:101A100079F038F4803279F08332A1F4232D2061FB
:101A20001DC08D3261F0803369F4232D216016C012
:101A3000832D8260382EE32DE4603E2E2AC0F32DE4
:101A4000F8601DC037FC2DC020ED280F2A3040F073
:101A50008E32B9F436FC81C1232D2064322E19C098
:101A600036FE06C08AE0989E200D1124922E11C0E9
:101A7000EAE02E9E200D1124222EF32DF0623F2E3F
:101A800008C08C3621F4832D8068382E02C0883639
:101A900041F4F70193FD859193FF81917F018111BD
:101AA000B3CF982F9F7D9554933028F40C5F1F4F30
:101AB0009FE399830DC0833631F0833771F083350E
:101AC00009F059C021C0F801808189830E5F1F4F42
:101AD00088248394912C530113C02801F2E04F0E07
:101AE000511CF801A080B18036FE03C0692D70E062
:101AF00002C06FEF7FEFC5010E94C20E4C01820150
:101B0000F32DFF773F2E16C0280122E0420E511C14
:101B1000F801A080B18036FE03C0692D70E002C0DC
:101B20006FEF7FEFC5010E94B70E4C01F32DF068F7
:101B30003F2E820133FC1BC0822D90E0881699064F
:101B4000B0F4B60180E290E00E94DD0E2A94F4CF5A
:101B5000F50137FC859137FE81915F01B60190E078
:101B60000E94DD0E21102A9421E0821A910881142E
:101B7000910471F7E8C0843611F0893641F5F80117
:101B800037FE07C060817181828193810C5F1F4F96
:101B900008C060817181072E000C880B990B0E5FC5
:101BA0001F4FF32DFF763F2E97FF09C0909580952C
:101BB000709561957F4F8F4F9F4FF0683F2E2AE0C1
:101BC00030E0A3010E94190F882E861845C0853782
:101BD00031F4232D2F7EB22E2AE030E025C0932D44
:101BE000997FB92E8F36C1F018F4883579F0B5C0D9
:101BF000803719F0883721F0B0C0E92FE061BE2EA0
:101C0000B4FE0DC0FB2DF460BF2E09C034FE0AC027
:101C1000292F2660B22E06C028E030E005C020E162
:101C200030E002C020E132E0F801B7FE07C0608179
:101C30007181828193810C5F1F4F06C06081718129
:101C400080E090E00E5F1F4FA3010E94190F882EC5
:101C50008618FB2DFF773F2E36FE0DC0232D2E7FDD
:101C6000A22E891458F434FE0BC032FC09C0832D17
:101C70008E7EA82E05C0B82CA32C03C0B82C01C0A2
:101C8000B92CA4FE0FC0FE01E80DF11D8081803348
:101C900021F49A2D997EA92E09C0A2FE06C0B39404
:101CA000B39404C08A2D867809F0B394A3FC11C0C4
:101CB000A0FE06C0B21488F4280C922C9B180EC00B
:101CC000B21460F4B60180E290E00E94DD0EB3949D
:101CD000F7CFB21418F42B1802C0982C212CA4FEB4
:101CE00010C0B60180E390E00E94DD0EA2FE17C096
:101CF000A1FC03C088E790E002C088E590E0B6014F
:101D00000CC08A2D867859F0A1FE02C08BE201C07A
:101D100080E2A7FC8DE2B60190E00E94DD0E8914FE
:101D200038F4B60180E390E00E94DD0E9A94F7CF7C
:101D30008A94F301E80DF11D8081B60190E00E94C4
:101D4000DD0E8110F5CF222009F442CEB60180E2EB
:101D500090E00E94DD0E2A94F6CFF60186819781ED
:101D600002C08FEF9FEF2B96E2E10C94930FFC01E2
:101D70000590615070400110D8F7809590958E0FB6
:101D80009F1F0895FC016150704001900110D8F729
:101D9000809590958E0F9F1F0895DC01FC01672FA1
:101DA00071917723E1F7329704C07C916D93708332
:101DB0006291AE17BF07C8F308950F931F93CF9397
:101DC000DF93FB01238121FD03C08FEF9FEF2CC028
:101DD00022FF16C04681578124813581421753075F
:101DE00044F4A081B1819D012F5F3F4F3183208357
:101DF0008C93268137812F5F3F4F3783268314C012
:101E00008B01EC01FB010084F185E02D0995892B04
:101E1000E1F6D80116968D919C9117970196179629
:101E20009C938E931697CE01DF91CF911F910F91C6
:101E30000895FA01AA27283051F1203181F1E89460
:101E40006F936E7F6E5F7F4F8F4F9F4FAF4FB1E0AD
:101E50003ED0B4E03CD0670F781F891F9A1FA11DA8
:101E6000680F791F8A1F911DA11D6A0F711D811DA9
:101E7000911DA11D20D009F468943F912AE0269F6E
:101E800011243019305D3193DEF6CF010895462FCD
:101E90004770405D4193B3E00FD0C9F7F6CF462FAE
:101EA0004F70405D4A3318F0495D31FD4052419317
:101EB00002D0A9F7EACFB4E0A695979587957795D4
:101EC0006795BA95C9F700976105710508959B015B
:101ED000AC010A2E06945795479537952795BA95E4
:101EE000C9F7620F731F841F951FA01D08952F92BD
:101EF0003F924F925F926F927F928F929F92AF929A
:101F0000BF92CF92DF92EF92FF920F931F93CF93E6
:101F1000DF93CDB7DEB7CA1BDB0B0FB6F894DEBF7D
:101F20000FBECDBF09942A88398848885F846E84A3
:101F30007D848C849B84AA84B984C884DF80EE80ED
:101F4000FD800C811B81AA81B981CE0FD11D0FB6F6
:101F5000F894DEBF0FBECDBFED010895F894FFCF1A
:101F600041542B434D47533D222573220D000D0A4A
:101F700000415445300D004F4B0054657874204D9E
:101F80006F64650041542B434D47463D310D00655C
:101F900072726F72004C44522056414C3A00454ECA
:101FA00054455220504C414E5400434F554E543AE4
:101FB0002000256400504C414E5420434F554E5450
:101FC000204953005741544552204C56203D006350
:101FD0006D005741544552204C4F57212121004557
:101FE0004E4F554748205741544552004572726F35
:101FF0007200483D002E002500543D00432000485B
:10200000204F4E2020004641204F4E202000464FBA
:10201000204F4E20200048454C4C4F212057454C26
:10202000434F4D45210066726F6D207E47524F55DC
:10203000502030367E00454E544552203120544FBA
:1020400000494E535452554354494F4E5300454E48
:1020500054455220434F4D4D414E443A0047534D55
:1020600020496E697469616C697A696E67004154D0
:10207000004869002B39343737333232393930323E
:0420800000534400C5
:00000001FF
