:100000000C9487000C94A4000C94A4000C94A400FD
:100010000C94A4000C94A4000C94A4000C94A400D0
:100020000C94A4000C94A4000C94A4000C94A400C0
:100030000C94A4000C94A4000C94A4000C94A400B0
:100040000C94A4000C94A4000C94FD020C94A40045
:100050000C94A4000C94A4000C94A4000C94A40090
:100060000C94A4000C94A4000C94A4000C94A40080
:100070000C94A4000C94A4000C94A4000C94A40070
:100080000C94A4000C94A4000C94A40007634236C2
:10009000B79BD8A71A39685618AEBAAB558C1D3C19
:1000A000B7CC5763BD6DEDFD753EF6177231BF00DD
:1000B0000000803F08000000BE922449123EABAA17
:1000C000AA2ABECDCCCC4C3E00000080BEABAAAA72
:1000D000AA3E00000000BF000000803F00000000BA
:1000E00000084178D3BB4387D1133D190E3CC3BDF3
:1000F0004282AD2B3E68EC8276BED98FE1A93E4CA0
:1001000080EFFFBE01C4FF7F3F000000000011240C
:100110001FBECFEFD0E1DEBFCDBF12E0A0E0B1E067
:10012000E6E6FFE102C005900D92AE31B107D9F7C6
:1001300023E0AEE1B2E001C01D92A631B207E1F7C3
:100140000E94CC070C94B10F0C9400002AB12869CE
:100150002AB9E5E9F0E020812E602083DC01CB01A3
:10016000880F991FAA1FBB1F880F991FAA1FBB1FAB
:100170009C01AD01220F331F441F551F220F331F57
:10018000441F551F60E072E18AE790E00E94170C5F
:100190008FEF820F89B9DA01C9010197A109B1096D
:1001A000892F9A2FAB2FBB278093900008958CB98D
:1001B0005D9BFECF08950F931F93CF93DF938C0128
:1001C000C0E0D0E003C00E94D7002196F801EC0FF8
:1001D000FD1F80818111F7CFDF91CF911F910F918A
:1001E00008958BBB84E088BB8FEC97E00197F1F713
:1001F00000C0000018BA9FE728E381E0915020403A
:100200008040E1F700C00000089588E30E94F100FB
:100210008FEC97E00197F1F700C0000081E00E94A9
:10022000F1008FEC97E00197F1F700C000008EE03D
:100230000E94F1008FEC97E00197F1F700C00000F9
:1002400008958BBB85E088BB8FEC97E00197F1F7B1
:1002500000C0000081E088BB9FE728E381E0915067
:1002600020408040E1F700C000000895EF92FF9227
:100270001F93CF93DF937C01162FC0E0D0E007C01F
:10028000F701EC0FFD1F80810E9421012196812F33
:1002900090E0C817D907A4F3DF91CF911F91FF9089
:1002A000EF90089590E0C097089581E00E94F100DA
:1002B000089580E80E94F100089580EC0E94F1000A
:1002C00008958BBB88B38D7F88BB88B3856088BB5E
:1002D00082E08A95F1F700C088B38B7F88BB8FECF2
:1002E00097E00197F1F700C0000008958FEE82BB00
:1002F0008FE19EE40197F1F700C00000809B30C0C1
:10030000819B30C0829B30C08FED82BB8FE19EE429
:100310000197F1F700C00000809B28C0819B28C096
:10032000829B28C08FEB82BB8FE19EE40197F1F79F
:1003300000C00000809B20C0819B20C0829B20C009
:100340008FE782BB8FE19EE40197F1F700C00000C8
:10035000809B18C0819B18C0829918C083E20895C1
:1003600081E3089582E3089583E3089584E3089583
:1003700085E3089586E3089587E3089588E3089563
:1003800089E308958AE2089580E3089581E6089557
:1003900081E602C00E9476018136E1F3089584B3BC
:1003A000816084BB089585B3816085BB88E28A95AE
:1003B000F1F785B38E7F85BB08958F929F92AF92A0
:1003C000BF92CF92DF92EF92FF920F931F93CF9342
:1003D000DF93D0E0C0E0B0E0A0E0F0E0F12C00E07E
:1003E00010E015C0999925C02D2F3C2F4B2F5A2F67
:1003F0006F2F7F2D802F912FA1E00E94570CD22FBD
:10040000C32FB42FA52FF62FF72E082F192F2D2F1E
:100410003C2F4B2F5A2F6F2F7F2D802F912F2F3B4B
:100420003742494051056105710581059105D1F2B9
:10043000C8F22D2F3C2F4B2F5A2F6F2F7F2D802F3F
:10044000912F203C374249405105610571058105D6
:10045000910509F469C01FBC82E08EBD1DBC1CBCA7
:10046000D0E0C0E0B0E0A0E0F0E0F12C00E010E06F
:100470001AC0999B2AC08CB59DB581369A4E28F535
:100480002D2F3C2F4B2F5A2F6F2F7F2D802F912FE9
:10049000A1E00E94570CD22FC32FB42FA52FF62F07
:1004A000F72E082F192F2D2F3C2F4B2F5A2F6F2F40
:1004B0007F2D802F912F2F3B3742494051056105F9
:1004C000710581059105A9F2A0F22D2F3C2F4B2F2C
:1004D0005A2F6F2F7F2D802F912F203C374249407C
:1004E0005105610571058105910519F18CB49DB423
:1004F0001EBC282D392D40E050E060E070E080E027
:1005000090E02036EAEE3E07410551056105710590
:100510008105910509F090F401E00E943B0C622FE7
:10052000732F842F952F0EC06FEF7FEF8FEF9FEF0C
:1005300009C06EEF7FEF8FEF9FEF04C06EEF7FEF8C
:100540008FEF9FEFDF91CF911F910F91FF90EF9071
:10055000DF90CF90BF90AF909F908F90089581B320
:10056000886081BB82B3877F82BB8FE39CE9019760
:10057000F1F700C0000082B3886082BB089581B3A8
:10058000877F81BB8399FECF839BFECF8399FECF6C
:10059000089520E030E019C0839BFECF80E58A9566
:1005A000F1F7839B09C080911F0290E0880F991F8B
:1005B000816080931F0205C080911F02880F809385
:1005C0001F028399FECF2F5F3F4F2830310524F360
:1005D00080911F02089580E487B987E886B908955D
:1005E000877097B1987F892B87B986B1806486B967
:1005F0003699FECF84B195B108951F920F920FB630
:100600000F9211248F939F93EF93FF93E091130325
:10061000F09114038CB1EE5DFD4F80838091130344
:10062000909114030196909314038093130381E037
:1006300080931E02FF91EF919F918F910F900FBEBB
:100640000F901F901895EF92FF920F931F93CF93E7
:10065000DF93CDB7DEB7A3970FB6F894DEBF0FBE1A
:10066000CDBF8B0110921403109213039F938F93AD
:1006700080E091E09F938F93CE0101967C019F9340
:100680008F930E94B70CC7010E94DB009FEF21EE01
:1006900084E0915020408040E1F700C000000F90BE
:1006A0000F900F900F900F900F90E0911303F09127
:1006B0001403EE5DFD4F80818E3309F046C0109229
:1006C0001403109213030F2EF2E2EF2EF2E0FF2E2E
:1006D000F02DF70101900020E9F73197AF01425268
:1006E000524060E070E0C7010E94630CC8010E94A4
:1006F000DB008AE10E94D7009FEF22E587E091505E
:1007000020408040E1F700C00000109214031092D6
:100710001303F70101900020E9F73197AF0142522E
:10072000524060E070E0C7010E94630CCE01019668
:10073000FC0101900020E9F73197AF01481B590BEC
:1007400060E070E00E94630C0AC0809113039091F6
:10075000140301969093140380931303A6CFA396DA
:100760000FB6F894DEBF0FBECDBFDF91CF911F91C2
:100770000F91FF90EF900895CF93DF9310921403A1
:1007800010921303E0911303F0911403EE5DFD4FFB
:1007900080818D3049F0E0911303F0911403EE5DF8
:1007A000FD4F80818A3051F480911303909114039E
:1007B00001969093140380931303E4CF80EC0E947E
:1007C000F100C0E0D0E019C0E0911303F0911403F0
:1007D000EE5DFD4F80810E94610180911303909135
:1007E0001403019690931403809313032196CF3042
:1007F000D10519F480E80E94F100E0911303F09113
:100800001403EE5DFD4F80818D30F1F610921403DC
:1008100010921303E2E2F2E001900020E9F7319731
:10082000AF014252524060E070E082E292E00E94EA
:10083000630CDF91CF910895AF92BF92CF92DF9278
:10084000EF92FF920F931F93CF93DF9300D0CDB71A
:10085000DEB7E12CF12C20E6E2162AEEF20608F0D3
:100860004EC0E2E2F2E001900020E9F73197E25257
:10087000F2406F01D1F18FE99FE00197F1F700C0DD
:1008800000009FEFE91AF90AA2E2B2E00D90002001
:10089000E9F71197A252B240EA17FB0731F51EC0E3
:1008A0008A818983F801EE5DFD4F80818A8342E071
:1008B00050E06EE071E0CE0101960E946A0C892B37
:1008C00051F0C501019622E0A216B10419F40E946C
:1008D000BC0315C05C010F5F1F4F04C000E010E0B7
:1008E000A12CB12C0C151D05DCF28FEC97E00197C3
:1008F000F1F700C000009FEFE91AF90AACCF0F90A2
:100900000F90DF91CF911F910F91FF90EF90DF90AB
:10091000CF90BF90AF90089580EC0E94F10081E1EC
:1009200091E00E94DB002FEF84E39CE021508040A7
:100930009040E1F700C0000067E171E082E292E0E0
:100940000E94780C892B61F10E941C0480EAE2E28B
:10095000F2E0DF011D928A95E9F7BFEF29E688E111
:10096000B15020408040E1F700C000000E945501D6
:1009700069E08AE191E00E94360180EC0E94F1007A
:1009800084E291E00E94DB000E941C049FEFA9E634
:10099000B8E19150A040B040E1F700C000000895D8
:1009A00065E08FE291E00E943601B6CF4F925F92F0
:1009B0006F927F928F929F92AF92BF92CF92DF926F
:1009C000EF92FF920F931F93CF93DF93CDB7DEB7D4
:1009D00064970FB6F894DEBF0FBECDBF00E010E005
:1009E0000E94C8018093C4020E9421018091C40228
:1009F0008332C9F00E945201F801EE0FFF1F21E07F
:100A000030E02C0F3D1FE20FF31F918380830F5FB7
:100A10001F4F3FEF82E597E0315080409040E1F773
:100A200000C00000DDCF580121E0A21AB108E12C7E
:100A3000F12C812C912C3BC0F701EE0FFF1F81E0C0
:100A400090E08C0F9D1FE80FF91FC080D180B50189
:100A50000B2C000C880B990B0E9499099B01AC018F
:100A600060E070E080E291E40E94920A2B013C0178
:100A7000B601DD0C880B990B0E949909A301920124
:100A80000E94250A2B013C01B401990C880B990B9B
:100A90000E949909A30192010E9483080E946109A2
:100AA0004B0191E0A91AB1082FEFE21AF20AE01601
:100AB000F10614F281E00E94F100C40164960FB6C1
:100AC000F894DEBF0FBECDBFDF91CF911F910F9184
:100AD000FF90EF90DF90CF90BF90AF909F908F905E
:100AE0007F906F905F904F900895CF93DF93CDB735
:100AF000DEB72A970FB6F894DEBF0FBECDBF0E94B7
:100B0000EB020E9455018FE097E20197F1F700C0D8
:100B1000000080E00E94F002BC0180E090E00E94B2
:100B200097092AE037ED43E25CE30E94250A26E6B6
:100B300036E646E050E40E94EF086B017C0120E0BD
:100B400030E040E251E40E94250A4B015C01A7011C
:100B5000960160E070E080EA90E40E9482089B01C8
:100B6000AC01C501B4010E94EF086B017C010E9439
:100B7000590169E085E391E00E943601C701B601A1
:100B80000E946109DC01CB014AE0BE016F5F7F4F2B
:100B90000E94920C65E0CE0101960E9436018FE121
:100BA0009EE40197F1F700C00000B3CF0F931F93AD
:100BB000CF93DF93CDB7DEB72A970FB6F894DEBF99
:100BC0000FBECDBF0E9455010E9459016BE08EE31C
:100BD00091E00E9436010E945D0167E08AE491E0A5
:100BE0000E9436010E94C8018093C4020E94D6046C
:100BF0009F938F9382E591E09F938F938E010F5F78
:100C00001F4F1F930F930E94B70C81E00E94F100C9
:100C10006FE085E591E00E94360180EC0E94F100D2
:100C20006AE0C8010E9436012FEF89E698E1215061
:100C300080409040E1F700C000000F900F900F90AF
:100C40000F900F900F902A960FB6F894DEBF0FBE4C
:100C5000CDBFDF91CF911F910F910895CF93DF9377
:100C600000D000D0CDB7DEB72FEF80E792E0215063
:100C700080409040E1F700C000000E9455010E94B2
:100C8000CF010E94D3010E94DD016F3F2FEF720759
:100C900089F40E94550162E08DEB91E00E943601DB
:100CA0008FEF99E628E1815090402040E1F700C0A5
:100CB0000000E7CF80E090E00E94970926E933E446
:100CC0004BE05DE30E94250A20E030E040E05FE376
:100CD0000E94250A9B01AC0160E070E088E492E488
:100CE0000E9482080E9461097093C3026093C2024D
:100CF00020912002309121022617370711F00E941F
:100D000055010E9459016BE084E691E00E94360192
:100D10004AE0BE016F5F7F4F8091C2029091C30293
:100D20000E94920C63E0CE0101960E94360162E0BF
:100D30008FE691E00E9436018091C2029091C30239
:100D400090932102809320028FE59AEE0197F1F7AC
:100D500000C000008091C2029091C3020A973CF447
:100D60000E945D016DE082E791E00E943601809172
:100D7000C2029091C3020A973CF00E945D016CE0B0
:100D80008FE791E00E9436010E94C8018093C4025F
:100D90008A3251F09FEF2BE48DE19150204080404A
:100DA000E1F700C000006DCF8A3209F05DCF0F90EF
:100DB0000F900F900F90DF91CF910895CF93DF9315
:100DC00000D000D01F92CDB7DEB78FEF82B90E945E
:100DD00055010E9459010E94AF020E94BF020E9469
:100DE000C902809312030E94C9028093C5020E9427
:100DF000C902809311030E94C902809315030E94C7
:100E0000C9028093C602E0911203F0E09091C502FE
:100E10009F01290F311D90911103290F311D9091D0
:100E20001503290F311D482F50E02417350731F0E5
:100E300065E08FE291E00E94360159C04AE0BE01B0
:100E40006F5F7F4FCF010E94920C62E08CE891E0CF
:100E50000E94360162E0CE0101960E94360161E0F7
:100E60008FE891E00E9436018091C5024AE0BE0100
:100E70006F5F7F4F90E00E94920C62E0CE0101967E
:100E80000E94360161E081E991E00E943601809183
:100E900011034AE0BE016F5F7F4F90E00E94920C09
:100EA00062E083E991E00E94360162E0CE010196A2
:100EB0000E94360161E08FE891E00E943601809146
:100EC00015034AE0BE016F5F7F4F90E00E94920CD5
:100ED00062E0CE0101960E9436018FED0E94210151
:100EE00062E086E991E00E9436010E945D012FEFE9
:100EF00084E39CE0215080409040E1F700C0000076
:100F0000209111038091150390E0820F911D499764
:100F10002CF466E089E991E00E94360120911103EA
:100F20008091150390E0820F911D4E972CF067E0A1
:100F300080EA91E00E943601209112038091C5025F
:100F400090E0820F911D8C3491052CF467E088EAC3
:100F500091E00E9436012FEF80E792E0215080401F
:100F60009040E1F700C000000E94C8018093C402D5
:100F70008A3251F02FEF8BE49DE121508040904068
:100F8000E1F700C0000023CF0F900F900F900F905B
:100F90000F90DF91CF9108958FEF8ABB87E087BBD9
:100FA00080EF81BB0E9405016EE080EB91E00E9422
:100FB00036012FEF8BE49DE1215080409040E1F716
:100FC00000C000000E945D0160E180EC91E00E94A1
:100FD0003601AFEFB9E628E1A150B0402040E1F77B
:100FE00000C000000E9455010E9459016AE080ED96
:100FF00091E00E9436010E945D016CE08BED91E072
:101000000E9436018FEF9BE4ADE181509040A040FB
:10101000E1F700C000000E9455016FE088EE91E00A
:101020000E9436010E94C8018333B9F028F481334D
:1010300049F0823379F0EFCF8533A9F088F0863319
:10104000A1F0E9CF0E9455016CE08BED91E00E9488
:101050003601E1CF0E94D605DECF0E942E06DBCFFF
:101060000E94DE06D8CF0E947505109214031092DC
:1010700013038CE3E5EDF2E0DF011D928A95E9F7B9
:101080000E94050160E875E280E090E00E94A60001
:1010900078940E94590160E187EF91E00E94360147
:1010A000BFEF2DE389E4B15020408040E1F700C05C
:1010B00000000E94550162E088E092E00E94360143
:1010C0000E948C040E945501C0E0D0E017C06BE084
:1010D00072E08EE092E00E94230362E08BE192E0F6
:1010E0000E9436019FEFA3EDB0E39150A040B040C5
:1010F000E1F700C000000E9455012196C230D105E1
:1011000034F389CF5058BB27AA270E949A080C9421
:10111000EB090E94DD0938F00E94E40920F039F45F
:101120009F3F19F426F40C94DA090EF4E095E7FBDE
:101130000C94D409E92F0E94FC0958F3BA176207EE
:1011400073078407950720F079F4A6F50C941E0A1E
:101150000EF4E0950B2EBA2FA02D0B01B9019001D2
:101160000C01CA01A0011124FF27591B99F0593F16
:1011700050F4503E68F11A16F040A22F232F342F5E
:101180004427585FF3CF469537952795A795F040AC
:101190005395C9F77EF41F16BA0B620B730B840BC1
:1011A000BAF09150A1F0FF0FBB1F661F771F881F79
:1011B000C2F70EC0BA0F621F731F841F48F48795D1
:1011C00077956795B795F7959E3F08F0B0CF9395C3
:1011D000880F08F09927EE0F9795879508950E943C
:1011E00003090C94EB090E94E40958F00E94DD0900
:1011F00040F029F45F3F29F00C94D40951110C946C
:101200001F0A0C94DA090E94FC0968F39923B1F3D0
:10121000552391F3951B550BBB27AA27621773071C
:10122000840738F09F5F5F4F220F331F441FAA1FB0
:10123000A9F335D00E2E3AF0E0E832D0915050406C
:10124000E695001CCAF72BD0FE2F29D0660F771F1A
:10125000881FBB1F261737074807AB07B0E809F000
:10126000BB0B802DBF01FF2793585F4F3AF09E3F85
:10127000510578F00C94D4090C941F0A5F3FE4F3F5
:10128000983ED4F3869577956795B795F7959F5FC8
:10129000C9F7880F911D9695879597F90895E1E014
:1012A000660F771F881FBB1F621773078407BA0773
:1012B00020F0621B730B840BBA0BEE1F88F7E095CE
:1012C00008950E9468096894B1110C941F0A08954A
:1012D0000E94040A88F09F5798F0B92F9927B751B8
:1012E000B0F0E1F0660F771F881F991F1AF0BA95CA
:1012F000C9F714C0B13091F00E941E0AB1E0089500
:101300000C941E0A672F782F8827B85F39F0B93FF1
:10131000CCF3869577956795B395D9F73EF490957C
:101320008095709561957F4F8F4F9F4F0895E894FA
:1013300009C097FB3EF490958095709561957F4F1D
:101340008F4F9F4F9923A9F0F92F96E9BB279395CB
:10135000F695879577956795B795F111F8CFFAF4DB
:10136000BB0F11F460FF1BC06F5F7F4F8F4F9F4F0C
:1013700016C0882311F096E911C0772321F09EE86A
:10138000872F762F05C0662371F096E8862F70E0D0
:1013900060E02AF09A95660F771F881FDAF7880FAA
:1013A0009695879597F9089597F99F6780E870E07B
:1013B00060E008959FEF80EC089500240A941616CB
:1013C000170618060906089500240A941216130633
:1013D000140605060895092E0394000C11F48823C1
:1013E00052F0BB0F40F4BF2B11F460FF04C06F5FDD
:1013F0007F4F8F4F9F4F089557FD9058440F551FB3
:1014000059F05F3F71F04795880F97FB991F61F086
:101410009F3F79F087950895121613061406551FFD
:10142000F2CF4695F1DF08C0161617061806991F69
:10143000F1CF86957105610508940895E894BB275E
:1014400066277727CB0197F908950E94380A0C94F4
:10145000EB090E94DD0938F00E94E40920F0952391
:1014600011F00C94D4090C94DA0911240C941F0A7D
:101470000E94FC0970F3959FC1F3950F50E0551F32
:10148000629FF001729FBB27F00DB11D639FAA27D9
:10149000F00DB11DAA1F649F6627B00DA11D661F28
:1014A000829F2227B00DA11D621F739FB00DA11D49
:1014B000621F839FA00D611D221F749F3327A00D03
:1014C000611D231F849F600D211D822F762F6A2F9F
:1014D00011249F5750409AF0F1F088234AF0EE0F04
:1014E000FF1FBB1F661F771F881F91505040A9F731
:1014F0009E3F510580F00C94D4090C941F0A5F3F65
:10150000E4F3983ED4F3869577956795B795F7956C
:10151000E7959F5FC1F7FE2B880F911D96958795E4
:1015200097F90895FA01EE0FFF1F30962105310556
:10153000A1F16115710561F48038BFE39B0749F1A2
:1015400068949038810561F08038BFEF9B0741F0C7
:1015500099234AF5FF3FE1053105210519F1E8948A
:101560000894E795D901AA2329F4AB2FBE2FF85F81
:10157000D0F310C0FF5F70F4A695E0F7F73950F094
:1015800019F0FF3A38F49F779F930DD00F9007FC26
:101590009058089546F00C94DA0960E070E080E815
:1015A0009FE308954FE79F775F934F933F932F9368
:1015B0000E948D0B2F913F914F915F910E94250AC0
:1015C0000C94EA0A29F416F00C94D4090C941E0A1F
:1015D0000C94DA090E94040AA8F39638A0F707F8D9
:1015E0000F92E8942BE33AEA48EB5FE70E943B0A4C
:1015F0000F920F920F924DB75EB70F920E94D50BCC
:10160000ECE8F0E00E941C0B4F915F91EF91FF918D
:10161000E595EE1FFF1F49F0FE57E0684427EE0FE7
:10162000441FFA95E1F74195550B0E944F0B0F901F
:1016300007FE0C94430B0895DF93CF931F930F93F2
:10164000FF92EF92DF927B018C01689406C0DA2E44
:10165000EF010E94380AFE01E894A5912591359189
:1016600045915591A6F3EF010E949A08FE0197015A
:10167000A801DA9469F7DF90EF90FF900F911F9126
:10168000CF91DF9108959B01AC0160E070E080E8AC
:101690009FE30C94EF080C94D4090C94090C0E945D
:1016A000040AD8F39923C9F3940F511DA3F3915061
:1016B000504094F059F0882332F0660F771F881F4E
:1016C00091505040C1F79E3F51052CF7880F911D56
:1016D0009695879597F908955F3FACF0983E9CF0FA
:1016E000BB27869577956795B79508F4B160939574
:1016F000C1F7BB0F58F711F460FFE8CF6F5F7F4F62
:101700008F4F9F4FE3CF0C941F0A16F00C94090CD7
:101710000C94DA0968940C94D4090E94040AA8F382
:101720009923C1F3AEF3DF93CF931F930F93FF92EF
:10173000C92FDD2788232AF02197660F771F881F7E
:10174000DAF720E030E040E85FEB9FE3883920F0F3
:10175000803E38F021968F770E948308E4EBF0E01A
:1017600004C00E948308E1EEF0E00E941C0B8B0194
:10177000BE01EC01FB2E6F5771097595771F880B21
:10178000990B0E94990928E132E741E35FE30E9447
:10179000380AAF2D9801AE01FF900F911F91CF91A4
:1017A000DF910E949A080C94EB09FA01DC01AA0F60
:1017B000BB1F9B01AC01BF5728F4222733274427C6
:1017C000507820C0B75190F4AB2F00244695379540
:1017D0002795011CA395D2F3002071F0220F331F2F
:1017E000441FB395DAF30ED00C9482086130710572
:1017F000A0E88A07B94630F49B01AC016627772739
:1018000088279078309621F0208331834283538358
:1018100008959F3F31F0915020F487957795679513
:10182000B795880F911D9695879597F90895A1E230
:101830001A2EAA1BBB1BFD010DC0AA1FBB1FEE1F4A
:10184000FF1FA217B307E407F50720F0A21BB30B95
:10185000E40BF50B661F771F881F991F1A9469F711
:1018600060957095809590959B01AC01BD01CF016D
:10187000089597FB10F8169400080F93083098F01D
:101880000850232F342F452F562F672F782F892F5D
:10189000902DF4CF059497958795779567955795F3
:1018A0004795379527950A95AAF70F910895002433
:1018B000A7FD00942A0F301D401D501D601D701D96
:1018C000801D901D0895DC0101C06D934150504072
:1018D000E0F70895FB01DC014150504030F08D915C
:1018E0000190801919F40020B9F7881B990B08950D
:1018F000FB0151915523A9F0BF01DC014D91451722
:101900004111E1F759F4CD010190002049F04D91CA
:1019100040154111C9F3FB014111EFCF81E090E087
:1019200001970895BB274A3031F4992322F4BDE290
:10193000909581959F4F0C949E0CBB27FB015527DA
:10194000AA27880F991FAA1FA41710F0A41B83951C
:101950005051B9F7A05DAA3308F0A95DA193009793
:1019600079F7B111B1931192CB010C94D00EAEE086
:10197000B0E0EDEBFCE00C94880F0D891E8986E049
:101980008C831A8309838FEF9FE79E838D83AE013B
:10199000475E5F4F6F89788DCE0101960E94D90C0A
:1019A000EF81F885E00FF11F10822E96E4E00C9491
:1019B000A40FABE0B0E0EFEDFCE00C947A0F6C010B
:1019C0007B018A01FC0117821682838181FFCCC1D1
:1019D000CE0101963C01F6019381F70193FD8591BB
:1019E00093FF81917F01882309F4BAC1853239F4CC
:1019F00093FD859193FF81917F01853229F4B60192
:101A000090E00E94E00EE7CF912C212C312CFFE1D9
:101A1000F315D8F08B3279F038F4803279F08332D4
:101A2000A1F4232D20611DC08D3261F0803369F453
:101A3000232D216016C0832D8260382EE32DE460B3
:101A40003E2E2AC0F32DF8601DC037FC2DC020EDBE
:101A5000280F2A3040F08E32B9F436FC81C1232D94
:101A60002064322E19C036FE06C08AE0989E200DF2
:101A70001124922E11C0EAE02E9E200D1124222E58
:101A8000F32DF0623F2E08C08C3621F4832D806840
:101A9000382E02C0883641F4F70193FD859193FFFB
:101AA00081917F018111B3CF982F9F7D9554933001
:101AB00028F40C5F1F4F9FE399830DC0833631F0EC
:101AC000833771F0833509F059C021C0F801808156
:101AD00089830E5F1F4F88248394912C530113C078
:101AE0002801F2E04F0E511CF801A080B18036FEB3
:101AF00003C0692D70E002C06FEF7FEFC5010E9447
:101B0000C50E4C018201F32DFF773F2E16C0280130
:101B100022E0420E511CF801A080B18036FE03C0C5
:101B2000692D70E002C06FEF7FEFC5010E94BA0E11
:101B30004C01F32DF0683F2E820133FC1BC0822D37
:101B400090E088169906B0F4B60180E290E00E9419
:101B5000E00E2A94F4CFF50137FC859137FE819190
:101B60005F01B60190E00E94E00E21102A9421E06E
:101B7000821A91088114910471F7E8C0843611F03B
:101B8000893641F5F80137FE07C060817181828195
:101B900093810C5F1F4F08C060817181072E000C7C
:101BA000880B990B0E5F1F4FF32DFF763F2E97FF8B
:101BB00009C090958095709561957F4F8F4F9F4F8D
:101BC000F0683F2E2AE030E0A3010E941C0F882E0F
:101BD000861845C0853731F4232D2F7EB22E2AE09A
:101BE00030E025C0932D997FB92E8F36C1F018F4BF
:101BF000883579F0B5C0803719F0883721F0B0C04A
:101C0000E92FE061BE2EB4FE0DC0FB2DF460BF2EA7
:101C100009C034FE0AC0292F2660B22E06C028E073
:101C200030E005C020E130E002C020E132E0F80100
:101C3000B7FE07C060817181828193810C5F1F4F65
:101C400006C06081718180E090E00E5F1F4FA301AC
:101C50000E941C0F882E8618FB2DFF773F2E36FE24
:101C60000DC0232D2E7FA22E891458F434FE0BC0F4
:101C700032FC09C0832D8E7EA82E05C0B82CA32C63
:101C800003C0B82C01C0B92CA4FE0FC0FE01E80DA2
:101C9000F11D8081803321F49A2D997EA92E09C0EF
:101CA000A2FE06C0B394B39404C08A2D867809F0CE
:101CB000B394A3FC11C0A0FE06C0B21488F4280C93
:101CC000922C9B180EC0B21460F4B60180E290E032
:101CD0000E94E00EB394F7CFB21418F42B1802C090
:101CE000982C212CA4FE10C0B60180E390E00E9445
:101CF000E00EA2FE17C0A1FC03C088E790E002C07E
:101D000088E590E0B6010CC08A2D867859F0A1FED6
:101D100002C08BE201C080E2A7FC8DE2B60190E038
:101D20000E94E00E891438F4B60180E390E00E942E
:101D3000E00E9A94F7CF8A94F301E80DF11D8081AB
:101D4000B60190E00E94E00E8110F5CF222009F448
:101D500042CEB60180E290E00E94E00E2A94F6CFD7
:101D6000F6018681978102C08FEF9FEF2B96E2E10B
:101D70000C94960FFC010590615070400110D8F74B
:101D8000809590958E0F9F1F0895FC0161507040C3
:101D900001900110D8F7809590958E0F9F1F0895A0
:101DA000DC01FC01672F71917723E1F7329704C0C2
:101DB0007C916D9370836291AE17BF07C8F308954D
:101DC0000F931F93CF93DF93FB01238121FD03C06A
:101DD0008FEF9FEF2CC022FF16C0468157812481D0
:101DE00035814217530744F4A081B1819D012F5FD3
:101DF0003F4F318320838C93268137812F5F3F4F64
:101E00003783268314C08B01EC01FB010084F1852C
:101E1000E02D0995892BE1F6D80116968D919C91BC
:101E20001797019617969C938E931697CE01DF9184
:101E3000CF911F910F910895FA01AA27283051F1EF
:101E4000203181F1E8946F936E7F6E5F7F4F8F4FEB
:101E50009F4FAF4FB1E03ED0B4E03CD0670F781F4A
:101E6000891F9A1FA11D680F791F8A1F911DA11D2F
:101E70006A0F711D811D911DA11D20D009F4689468
:101E80003F912AE0269F11243019305D3193DEF610
:101E9000CF010895462F4770405D4193B3E00FD0C6
:101EA000C9F7F6CF462F4F70405D4A3318F0495DB1
:101EB00031FD4052419302D0A9F7EACFB4E0A69594
:101EC0009795879577956795BA95C9F700976105B6
:101ED000710508959B01AC010A2E0694579547950C
:101EE00037952795BA95C9F7620F731F841F951F01
:101EF000A01D08952F923F924F925F926F927F9212
:101F00008F929F92AF92BF92CF92DF92EF92FF9209
:101F10000F931F93CF93DF93CDB7DEB7CA1BDB0BB5
:101F20000FB6F894DEBF0FBECDBF09942A8839885A
:101F300048885F846E847D848C849B84AA84B98461
:101F4000C884DF80EE80FD800C811B81AA81B9816D
:101F5000CE0FD11D0FB6F894DEBF0FBECDBFED0181
:061F60000895F894FFCF84
:101F660041542B434D47533D222573220D000D0A44
:101F760000415445300D004F4B0054657874204D98
:101F86006F64650041542B434D47463D310D004576
:101F960072726F72004C44522056414C3A00454EC4
:101FA60054455220504C414E5400434F554E543ADE
:101FB6002000256400504C414E5420434F554E544A
:101FC600204953005741544552204C56203D00634A
:101FD6006D005741544552204C4F57212121004551
:101FE6004E4F55474820574154455200483D002E14
:101FF600002500543D0043200048204F4E2020007D
:102006004641204F4E202000464F204F4E202000B4
:1020160048454C4C4F212057454C434F4D452100D8
:1020260066726F6D207E47524F55502030367E00C7
:10203600454E544552203120544F00494E53545278
:10204600554354494F4E5300454E54455220434F35
:102056004D4D414E443A0047534D20496E697469CF
:10206600616C697A696E67004154004869002B39D2
:0E2076003437373332323939303200534400B8
:00000001FF
