S010000047726F75702030362E7372656381
S11300000C9487000C94A4000C94A4000C94A400F9
S11300100C94A4000C94A4000C94A4000C94A400CC
S11300200C94A4000C94A4000C94A4000C94A400BC
S11300300C94A4000C94A4000C94A4000C94A400AC
S11300400C94A4000C94A4000C94A4000C94A4009C
S11300500C94A4000C94A4000C94A4000C94A4008C
S11300600C94A4000C94A4000C94A4000C94A4007C
S11300700C94A4000C94A4000C94A4000C94A4006C
S11300800C94A4000C94A4000C94A40007634236BE
S1130090B79BD8A71A39685618AEBAAB558C1D3C15
S11300A0B7CC5763BD6DEDFD753EF6177231BF00D9
S11300B00000803F08000000BE922449123EABAA13
S11300C0AA2ABECDCCCC4C3E00000080BEABAAAA6E
S11300D0AA3E00000000BF000000803F00000000B6
S11300E000084178D3BB4387D1133D190E3CC3BDEF
S11300F04282AD2B3E68EC8276BED98FE1A93E4C9C
S113010080EFFFBE01C4FF7F3F0000000000112408
S11301101FBECFEFD0E1DEBFCDBF11E0A0E0B1E064
S1130120E6EBF9E102C005900D92A63DB107D9F7BF
S113013021E0A6EDB1E001C01D92A13EB207E1F7B6
S11301400E94AB030C94D90C0C9400008BBB84E08C
S113015088BB89EF90E00197F1F700C0000018BA5E
S113016083ED90E30197F1F700C00000089588E360
S11301700E94A60089EF90E00197F1F700C000000B
S113018081E00E94A60089EF90E00197F1F700C09A
S113019000008EE00E94A60089EF90E00197F1F73D
S11301A000C0000008958BBB85E088BB89EF90E018
S11301B00197F1F700C0000081E088BB83ED90E374
S11301C00197F1F700C000000895EF92FF921F938A
S11301D0CF93DF937C01162FC0E0D0E007C0F70176
S11301E0EC0FFD1F80810E94D3002196812F90E0A7
S11301F0C817D907A4F3DF91CF911F91FF90EF9017
S1130200089590E0C097089581E00E94A6000895A3
S113021080E80E94A600089580EC0E94A60008953C
S11302208FEE82BB83EC99E00197F1F700C00000E8
S1130230809B30C0819B30C0829B30C08FED82BBDD
S113024083EC99E00197F1F700C00000809B28C07F
S1130250819B28C0829B28C08FEB82BB83EC99E0F2
S11302600197F1F700C00000809B20C0819B20C053
S1130270829B20C08FE782BB83EC99E00197F1F762
S113028000C00000809B18C0819B18C0829918C0D0
S113029083E2089581E3089582E3089583E3089552
S11302A084E3089585E3089586E3089587E3089534
S11302B088E3089589E308958AE2089580E3089520
S11302C081E6089581E602C00E9410018136E1F3BF
S11302D0089584B3816084BB089585B3816085BB30
S11302E085E08A95F1F785B38E7F85BB08958F925B
S11302F09F92AF92BF92CF92DF92EF92FF920F93B1
S11303001F93CF93DF93D0E0C0E0B0E0A0E0F0E033
S1130310F12C00E010E015C0999925C02D2F3C2F39
S11303204B2F5A2F6F2F7F2D802F912FA1E00E94EA
S1130330AE09D22FC32FB42FA52FF62FF72E082FD7
S1130340192F2D2F3C2F4B2F5A2F6F2F7F2D802F9E
S1130350912F2F3B374249405105610571058105B5
S11303609105D1F2C8F22D2F3C2F4B2F5A2F6F2F0E
S11303707F2D802F912F203C374249405105610544
S113038071058105910509F469C01FBC82E08EBD29
S11303901DBC1CBCD0E0C0E0B0E0A0E0F0E0F12C5B
S11303A000E010E01AC0999B2AC08CB59DB5813637
S11303B09A4E28F52D2F3C2F4B2F5A2F6F2F7F2D20
S11303C0802F912FA1E00E94AE09D22FC32FB42F0A
S11303D0A52FF62FF72E082F192F2D2F3C2F4B2F3B
S11303E05A2F6F2F7F2D802F912F2F3B374249405B
S11303F051056105710581059105A9F2A0F22D2F22
S11304003C2F4B2F5A2F6F2F7F2D802F912F203C65
S1130410374249405105610571058105910519F17E
S11304208CB49DB41EBC282D392D40E050E060E012
S113043070E080E090E02036EAEE3E074105510589
S1130440610571058105910509F090F401E00E94B0
S11304509209622F732F842F952F0EC06FEF7FEFB9
S11304608FEF9FEF09C06EEF7FEF8FEF9FEF04C018
S11304706EEF7FEF8FEF9FEFDF91CF911F910F9181
S1130480FF90EF90DF90CF90BF90AF909F908F90B0
S1130490089581B3886081BB82B3877F82BB87E87C
S11304A093E10197F1F700C0000082B3886082BB3A
S11304B0089581B3877F81BB8399FECF839BFECF51
S11304C08399FECF089520E030E019C0839BFECFCE
S11304D08AE08A95F1F7839B09C08091D60190E068
S11304E0880F991F81608093D60105C08091D60141
S11304F0880F8093D6018399FECF2F5F3F4F28301A
S1130500310524F38091D601089580E487B987E802
S113051086B90895877097B1987F892B87B986B17A
S1130520806486B93699FECF84B195B108954F920F
S11305305F926F927F928F929F92AF92BF92CF926F
S1130540DF92EF92FF920F931F93CF93DF93CDB778
S1130550DEB764970FB6F894DEBF0FBECDBF00E0E0
S113056010E00E9462018093DB010E94D30080911D
S1130570DB018332C9F00E940101F801EE0FFF1F75
S113058021E030E02C0F3D1FE20FF31F91838083A5
S11305900F5F1F4F3FE58AEE90E03150804090405E
S11305A0E1F700C00000DDCF580121E0A21AB10834
S11305B0E12CF12C812C912C3BC0F701EE0FFF1F95
S11305C081E090E08C0F9D1FE80FF91FC080D1805F
S11305D0B5010B2C000C880B990B0E94EE069B01B5
S11305E0AC0160E070E080E291E40E940B082B0112
S11305F03C01B601DD0C880B990B0E94EE06A301A9
S113060092010E949E072B013C01B401990C880BB6
S1130610990B0E94EE06A30192010E94D3050E9449
S1130620B6064B0191E0A91AB1082FEFE21AF20ABB
S1130630E016F10614F281E00E94A600C40164965B
S11306400FB6F894DEBF0FBECDBFDF91CF911F91DF
S11306500F91FF90EF90DF90CF90BF90AF909F905D
S11306608F907F906F905F904F900895CF93DF931A
S1130670CDB7DEB72A970FB6F894DEBF0FBECDBF55
S11306800E9485020E94040181EE94E00197F1F733
S113069000C0000080E00E948A02BC0180E090E07B
S11306A00E94EC062AE037ED43E25CE30E949E07D9
S11306B026E636E646E050E40E9444066B017C01DF
S11306C020E030E040E251E40E949E074B015C01CF
S11306D0A701960160E070E080EA90E40E94D205F0
S11306E09B01AC01C501B4010E9444066B017C016D
S11306F020E030E0A9010E943F06882369F06AE007
S113070080E091E00E94E50083ED90E30197F1F72A
S113071000C000000E9404010E94080169E08DE00D
S113072091E00E94E500C701B6010E94B606DC0113
S1130730CB014AE0BE016F5F7F4F0E94BA0965E0BA
S1130740CE0101960E94E50083EC99E00197F1F750
S113075000C000009FCFCF93DF93CDB7DEB72E97B5
S11307600FB6F894DEBF0FBECDBF8FEF8ABB87E014
S113077087BB80EF81BB0E94B7006EE086E191E009
S11307800E94E5002FE789EA93E0215080409040E1
S1130790E1F700C000000E940C0160E186E291E0F4
S11307A00E94E5002FE38DE093E0215080409040CB
S11307B0E1F700C000000E9404010E9408016AE001
S11307C086E391E00E94E5000E940C016CE081E464
S11307D091E00E94E5002FE789EA93E021508040F0
S11307E09040E1F700C000000E9404016FE08EE435
S11307F091E00E94E5000E946201833309F457C02E
S113080028F4813351F0823381F0EECF843309F43C
S1130810EDC0853309F4C4C1E7CF0E9404016CE044
S113082081E491E00E94E500DFCF0E9404010E9470
S113083008016BE08DE591E00E94E5000E940C0147
S113084067E089E691E00E94E5000E9462018A3235
S113085059F20E9497029F938F9381E791E09F93AF
S11308608F938E010B5F1F4F1F930F930E94DF091D
S113087081E00E94A6006FE084E791E00E94E50019
S113088080EC0E94A6006AE0C8010E94E5002FE304
S11308908DE093E0215080409040E1F700C00000DB
S11308A00F900F900F900F900F900F909DCF87EAAD
S11308B091E60197F1F700C000000E9404010E9434
S11308C069010E946D010E9477016F3F2FEF72074B
S11308D089F40E94040162E083E291E00E94E50051
S11308E08FE39DE023E0815090402040E1F700C079
S11308F00000E7CF80E090E00E94EC0626E933E4B4
S11309004BE05DE30E949E0720E030E040E05FE3BF
S11309100E949E079B01AC0160E070E088E492E4D1
S11309200E94D2050E94B6067093DA016093D90141
S11309302091D7013091D8012617370711F00E9472
S113094004010E9408016BE083E891E00E94E50045
S11309504AE0BE016F5F7F4F8091D9019091DA0127
S11309600E94BA0963E0CE0101960E94E50062E0AC
S11309708EE891E00E94E5008091D9019091DA011E
S11309809093D8018093D7018BE49DE10197F1F70F
S113099000C000008091D9019091DA010A973CF4DB
S11309A00E940C016DE081E991E00E94E5008091D4
S11309B0D9019091DA010A973CF00E940C016CE095
S11309C08EE991E00E94E5000E9462018A3251F0B2
S11309D09FE729EA83E0915020408040E1F700C07E
S11309E000006FCF8A3209F062CFFECE8FEF82B95A
S11309F00E9404010E9408010E9449020E945902B7
S1130A000E9463028093DF010E9463028093DC01F1
S1130A100E9463028093DE010E9463028093E001DE
S1130A200E9463028093DD01E091DF01F0E0909188
S1130A30DC019F01290F311D9091DE01290F311D29
S1130A409091E001290F311D482F50E024173507FC
S1130A5031F065E08BEA91E00E94E50059C04AE07C
S1130A60BE016B5F7F4FCF010E94BA0962E081EB48
S1130A7091E00E94E50062E0CE0105960E94E50047
S1130A8061E084EB91E00E94E5008091DC014AE0A2
S1130A90BE016B5F7F4F90E00E94BA0962E0CE0115
S1130AA005960E94E50061E086EB91E00E94E50076
S1130AB08091DE014AE0BE016B5F7F4F90E00E94AF
S1130AC0BA0962E088EB91E00E94E50062E0CE01A1
S1130AD005960E94E50061E084EB91E00E94E50048
S1130AE08091E0014AE0BE016B5F7F4F90E00E947D
S1130AF0BA0962E0CE0105960E94E5008FED0E94DE
S1130B00D30062E08BEB91E00E94E5000E940C01AF
S1130B109FE926E881E0915020408040E1F700C041
S1130B2000002091DE018091E00190E0820F911D90
S1130B3049972CF466E08EEB91E00E94E500209149
S1130B40DE018091E00190E0820F911D4E972CF020
S1130B5067E085EC91E00E94E5002091DF0180913F
S1130B60DC0190E0820F911D8C3491052CF467E038
S1130B708DEC91E00E94E50087EA91E60197F1F798
S1130B8000C000000E9462018A3251F09FE729EA06
S1130B9083E0915020408040E1F700C0000028CF5E
S1130BA00E9436035058BB27AA270E94EA050C94DA
S1130BB064070E94560738F00E945D0720F039F45C
S1130BC09F3F19F426F40C9453070EF4E095E7FBC9
S1130BD00C944D07E92F0E94750758F3BA17620762
S1130BE073078407950720F079F4A6F50C9497070A
S1130BF00EF4E0950B2EBA2FA02D0B01B901900134
S1130C000C01CA01A0011124FF27591B99F0593F77
S1130C1050F4503E68F11A16F040A22F232F342FBF
S1130C204427585FF3CF469537952795A795F0400D
S1130C305395C9F77EF41F16BA0B620B730B840B22
S1130C40BAF09150A1F0FF0FBB1F661F771F881FDA
S1130C50C2F70EC0BA0F621F731F841F48F4879532
S1130C6077956795B795F7959E3F08F0B0CF939524
S1130C70880F08F09927EE0F9795879508950E949D
S1130C80290708F481E008950E9458060C9464072B
S1130C900E945D0758F00E94560740F029F45F3F18
S1130CA029F00C944D0751110C9498070C94530798
S1130CB00E94750768F39923B1F3552391F3951BAB
S1130CC0550BBB27AA2762177307840738F09F5F69
S1130CD05F4F220F331F441FAA1FA9F335D00E2ED6
S1130CE03AF0E0E832D091505040E695001CCAF743
S1130CF02BD0FE2F29D0660F771F881FBB1F261706
S1130D0037074807AB07B0E809F0BB0B802DBF01DC
S1130D10FF2793585F4F3AF09E3F510578F00C94AB
S1130D204D070C9498075F3FE4F3983ED4F38695FF
S1130D3077956795B795F7959F5FC9F7880F911DCC
S1130D409695879597F90895E1E0660F771F881FB8
S1130D50BB1F621773078407BA0720F0621B730B6B
S1130D60840BBA0BEE1F88F7E09508950E94BD0628
S1130D706894B1110C94980708950E947D0788F037
S1130D809F5798F0B92F9927B751B0F0E1F0660F4B
S1130D90771F881F991F1AF0BA95C9F714C0B1308C
S1130DA091F00E949707B1E008950C949707672F7C
S1130DB0782F8827B85F39F0B93FCCF386957795BB
S1130DC06795B395D9F73EF49095809570956195A4
S1130DD07F4F8F4F9F4F0895E89409C097FB3EF4CF
S1130DE090958095709561957F4F8F4F9F4F992374
S1130DF0A9F0F92F96E9BB279395F69587957795F2
S1130E006795B795F111F8CFFAF4BB0F11F460FFB1
S1130E101BC06F5F7F4F8F4F9F4F16C0882311F009
S1130E2096E911C0772321F09EE8872F762F05C01D
S1130E30662371F096E8862F70E060E02AF09A95B8
S1130E40660F771F881FDAF7880F9695879597F9AD
S1130E500895990F0008550FAA0BE0E8FEEF161647
S1130E601706E807F907C0F012161306E407F5079A
S1130E7098F0621B730B840B950B39F40A2661F00E
S1130E80232B242B252B21F408950A2609F4A140B1
S1130E90A6958FEF811D811D089597F99F6780E8BE
S1130EA070E060E008959FEF80EC089500240A94B8
S1130EB01616170618060906089500240A94121631
S1130EC01306140605060895092E0394000C11F464
S1130ED0882352F0BB0F40F4BF2B11F460FF04C011
S1130EE06F5F7F4F8F4F9F4F089557FD9058440F6A
S1130EF0551F59F05F3F71F04795880F97FB991F75
S1130F0061F09F3F79F08795089512161306140631
S1130F10551FF2CF4695F1DF08C0161617061806BE
S1130F20991FF1CF86957105610508940895E89499
S1130F30BB2766277727CB0197F908950E94B1074D
S1130F400C9464070E94560738F00E945D0720F055
S1130F50952311F00C944D070C94530711240C9411
S1130F6098070E94750770F3959FC1F3950F50E0A1
S1130F70551F629FF001729FBB27F00DB11D639F47
S1130F80AA27F00DB11DAA1F649F6627B00DA11DED
S1130F90661F829F2227B00DA11D621F739FB00D93
S1130FA0A11D621F839FA00D611D221F749F332703
S1130FB0A00D611D231F849F600D211D822F762F9C
S1130FC06A2F11249F5750409AF0F1F088234AF079
S1130FD0EE0FFF1FBB1F661F771F881F91505040E5
S1130FE0A9F79E3F510580F00C944D070C94980787
S1130FF05F3FE4F3983ED4F3869577956795B7956C
S1131000F795E7959F5FC1F7FE2B880F911D969585
S1131010879597F90895FA01EE0FFF1F3096210581
S11310203105A1F16115710561F48038BFE39B07B7
S113103049F168949038810561F08038BFEF9B07CF
S113104041F099234AF5FF3FE1053105210519F1E6
S1131050E8940894E795D901AA2329F4AB2FBE2F6D
S1131060F85FD0F310C0FF5F70F4A695E0F7F7398E
S113107050F019F0FF3A38F49F779F930DD00F90FA
S113108007FC9058089546F00C94530760E070E014
S113109080E89FE308954FE79F775F934F933F93D3
S11310A02F930E9406092F913F914F915F910E94C7
S11310B09E070C94630829F416F00C944D070C94C5
S11310C097070C9453070E947D07A8F39638A0F75E
S11310D007F80F92E8942BE33AEA48EB5FE70E94A3
S11310E0B4070F920F920F924DB75EB70F920E9402
S11310F04E09ECE8F0E00E9495084F915F91EF9162
S1131100FF91E595EE1FFF1F49F0FE57E068442765
S1131110EE0F441FFA95E1F74195550B0E94C8085C
S11311200F9007FE0C94BC080895DF93CF931F9390
S11311300F93FF92EF92DF927B018C01689406C0BB
S1131140DA2EEF010E94B107FE01E894A5912591E2
S1131150359145915591A6F3EF010E94EA05FE01F0
S11311609701A801DA9469F7DF90EF90FF900F914F
S11311701F91CF91DF9108959B01AC0160E070E075
S113118080E89FE30C9444060C944D070C94820968
S11311900E947D07D8F39923C9F3940F511DA3F33B
S11311A09150504094F059F0882332F0660F771F25
S11311B0881F91505040C1F79E3F51052CF7880F6E
S11311C0911D9695879597F908955F3FACF0983EE9
S11311D09CF0BB27869577956795B79508F4B16021
S11311E09395C1F7BB0F58F711F460FFE8CF6F5F19
S11311F07F4F8F4F9F4FE3CF0C94980716F00C94BA
S113120082090C94530768940C944D070E947D073F
S1131210A8F39923C1F3AEF3DF93CF931F930F93F6
S1131220FF92C92FDD2788232AF02197660F771FA5
S1131230881FDAF720E030E040E85FEB9FE388396D
S113124020F0803E38F021968F770E94D305E4EB9E
S1131250F0E004C00E94D305E1EEF0E00E9495089E
S11312608B01BE01EC01FB2E6F5771097595771F39
S1131270880B990B0E94EE0628E132E741E35FE315
S11312800E94B107AF2D9801AE01FF900F911F91FD
S1131290CF91DF910E94EA050C946407FA01DC0106
S11312A0AA0FBB1F9B01AC01BF5728F42227332789
S11312B04427507820C0B75190F4AB2F00244695B2
S11312C037952795011CA395D2F3002071F0220FC6
S11312D0331F441FB395DAF30ED00C94D20561305A
S11312E07105A0E88A07B94630F49B01AC01662772
S11312F0772788279078309621F0208331834283A2
S1131300538308959F3F31F0915020F4879577954A
S11313106795B795880F911D9695879597F90895C8
S113132097FB10F8169400080F93083098F00850B3
S1131330232F342F452F562F672F782F892F902D49
S1131340F4CF059497958795779567955795479525
S1131350379527950A95AAF70F9108950024A7FDBC
S113136000942A0F301D401D501D601D701D801DEE
S1131370901D0895BB274A3031F4992322F4BDE22D
S1131380909581959F4F0C94C609BB27FB01552767
S1131390AA27880F991FAA1FA41710F0A41B8395CE
S11313A05051B9F7A05DAA3308F0A95DA193009745
S11313B079F7B111B1931192CB010C94F80BAEE013
S11313C0B0E0E5EEF9E00C94B00C0D891E8986E0DE
S11313D08C831A8309838FEF9FE79E838D83AE01ED
S11313E0475E5F4F6F89788DCE0101960E94010A96
S11313F0EF81F885E00FF11F10822E96E4E00C9443
S1131400CC0CABE0B0E0E7E0FAE00C94A20C6C0189
S11314107B018A01FC0117821682838181FFCCC182
S1131420CE0101963C01F6019381F70193FD85916C
S113143093FF81917F01882309F4BAC1853239F47D
S113144093FD859193FF81917F01853229F4B60143
S113145090E00E94080CE7CF912C212C312CFFE165
S1131460F315D8F08B3279F038F4803279F0833286
S1131470A1F4232D20611DC08D3261F0803369F405
S1131480232D216016C0832D8260382EE32DE46065
S11314903E2E2AC0F32DF8601DC037FC2DC020ED70
S11314A0280F2A3040F08E32B9F436FC81C1232D46
S11314B02064322E19C036FE06C08AE0989E200DA4
S11314C01124922E11C0EAE02E9E200D1124222E0A
S11314D0F32DF0623F2E08C08C3621F4832D8068F2
S11314E0382E02C0883641F4F70193FD859193FFAD
S11314F081917F018111B3CF982F9F7D95549330B3
S113150028F40C5F1F4F9FE399830DC0833631F09D
S1131510833771F0833509F059C021C0F801808107
S113152089830E5F1F4F88248394912C530113C029
S11315302801F2E04F0E511CF801A080B18036FE64
S113154003C0692D70E002C06FEF7FEFC5010E94F8
S1131550ED0B4C018201F32DFF773F2E16C02801BD
S113156022E0420E511CF801A080B18036FE03C077
S1131570692D70E002C06FEF7FEFC5010E94E20B9E
S11315804C01F32DF0683F2E820133FC1BC0822DE9
S113159090E088169906B0F4B60180E290E00E94CB
S11315A0080C2A94F4CFF50137FC859137FE81911C
S11315B05F01B60190E00E94080C21102A9421E0FA
S11315C0821A91088114910471F7E8C0843611F0ED
S11315D0893641F5F80137FE07C060817181828147
S11315E093810C5F1F4F08C060817181072E000C2E
S11315F0880B990B0E5F1F4FF32DFF763F2E97FF3D
S113160009C090958095709561957F4F8F4F9F4F3E
S1131610F0683F2E2AE030E0A3010E94440C882E9B
S1131620861845C0853731F4232D2F7EB22E2AE04B
S113163030E025C0932D997FB92E8F36C1F018F470
S1131640883579F0B5C0803719F0883721F0B0C0FB
S1131650E92FE061BE2EB4FE0DC0FB2DF460BF2E59
S113166009C034FE0AC0292F2660B22E06C028E025
S113167030E005C020E130E002C020E132E0F801B2
S1131680B7FE07C060817181828193810C5F1F4F17
S113169006C06081718180E090E00E5F1F4FA3015E
S11316A00E94440C882E8618FB2DFF773F2E36FEB1
S11316B00DC0232D2E7FA22E891458F434FE0BC0A6
S11316C032FC09C0832D8E7EA82E05C0B82CA32C15
S11316D003C0B82C01C0B92CA4FE0FC0FE01E80D54
S11316E0F11D8081803321F49A2D997EA92E09C0A1
S11316F0A2FE06C0B394B39404C08A2D867809F080
S1131700B394A3FC11C0A0FE06C0B21488F4280C44
S1131710922C9B180EC0B21460F4B60180E290E0E3
S11317200E94080CB394F7CFB21418F42B1802C01B
S1131730982C212CA4FE10C0B60180E390E00E94F6
S1131740080CA2FE17C0A1FC03C088E790E002C009
S113175088E590E0B6010CC08A2D867859F0A1FE88
S113176002C08BE201C080E2A7FC8DE2B60190E0EA
S11317700E94080C891438F4B60180E390E00E94BA
S1131780080C9A94F7CF8A94F301E80DF11D808137
S1131790B60190E00E94080C8110F5CF222009F4D4
S11317A042CEB60180E290E00E94080C2A94F6CF63
S11317B0F6018681978102C08FEF9FEF2B96E2E1BD
S11317C00C94BE0CFC010590615070400110D8F7D8
S11317D0809590958E0F9F1F0895FC016150704075
S11317E001900110D8F7809590958E0F9F1F089552
S11317F0DC01FC01672F71917723E1F7329704C074
S11318007C916D9370836291AE17BF07C8F30895FE
S11318100F931F93CF93DF93FB01238121FD03C01B
S11318208FEF9FEF2CC022FF16C046815781248181
S113183035814217530744F4A081B1819D012F5F84
S11318403F4F318320838C93268137812F5F3F4F15
S11318503783268314C08B01EC01FB010084F185DE
S1131860E02D0995892BE1F6D80116968D919C916E
S11318701797019617969C938E931697CE01DF9136
S1131880CF911F910F910895FA01AA27283051F1A1
S1131890203181F1E8946F936E7F6E5F7F4F8F4F9D
S11318A09F4FAF4FB1E03ED0B4E03CD0670F781FFC
S11318B0891F9A1FA11D680F791F8A1F911DA11DE1
S11318C06A0F711D811D911DA11D20D009F468941A
S11318D03F912AE0269F11243019305D3193DEF6C2
S11318E0CF010895462F4770405D4193B3E00FD078
S11318F0C9F7F6CF462F4F70405D4A3318F0495D63
S113190031FD4052419302D0A9F7EACFB4E0A69545
S11319109795879577956795BA95C9F70097610567
S1131920710508959B01AC010A2E069457954795BD
S113193037952795BA95C9F7620F731F841F951FB2
S1131940A01D08952F923F924F925F926F927F92C3
S11319508F929F92AF92BF92CF92DF92EF92FF92BB
S11319600F931F93CF93DF93CDB7DEB7CA1BDB0B67
S11319700FB6F894DEBF0FBECDBF09942A8839880C
S113198048885F846E847D848C849B84AA84B98413
S1131990C884DF80EE80FD800C811B81AA81B9811F
S11319A0CE0FD11D0FB6F894DEBF0FBECDBFED0133
S10919B00895F894FFCF36
S11319B652656164207468652076616C004C4452FB
S11319C62056414C3A0048454C4C4F212057454C33
S11319D6434F4D45210066726F6D207E47524F5529
S11319E6502030367E00454E544552203120544F07
S11319F600494E535452554354494F4E5300454E95
S1131A0654455220434F4D4D414E443A00454E54A1
S1131A16455220504C414E5400434F554E543A20A3
S1131A2600256400504C414E5420434F554E5420DB
S1131A364953005741544552204C56203D00636D8E
S1131A46005741544552204C4F5721212100454E01
S1131A564F554748205741544552004572726F729C
S1131A6600483D002E002500543D00432000482038
S1131A764F4E2020004641204F4E202000464F2046
S1091A864F4E2020000079
S9030000FC
