:100000000C9446000C945B000C945B000C945B0019
:100010000C945B000C945B000C945B000C945B00F4
:100020000C945B000C945B000C945B000C945B00E4
:100030000C945B000C945B000C945B000C945B00D4
:100040000C945B000C945B000C945B000C945B00C4
:100050000C945B000C945B000C945B000C945B00B4
:100060000C945B000C945B000C945B000C945B00A4
:100070000C945B000C945B000C945B000C945B0094
:100080000C945B000C945B000C945B0011241FBE6D
:10009000CFEFD0E1DEBFCDBF11E0A0E0B1E0EEE5F3
:1000A000F3E002C005900D92A831B107D9F70E9484
:1000B00028010C94AD010C940000969A00C096980B
:1000C0000895CF93DF93D82F662311F0949A01C03F
:1000D0009498959881B38F6081BBC2B3C07F8D2FF8
:1000E00082958F708C2B82BB0E945D00DF70DC2BB1
:1000F000D2BB0E945D00CF60C2BBDF91CF9108955B
:10010000882311F0949A01C09498959A81B3807FC6
:1001100081BB969A00C090B3969800C0969A00C092
:1001200020B32F70892F8295807F9698822B089517
:1001300080E00E9480008823DCF388E090E0019753
:10014000F1F780E00E9480000895CF93C82F0E94AD
:10015000980060E08C2F0E946100CF91089561119A
:1001600004C080580E94A500089580540E94A500F4
:10017000089581E00E94A5000895CF93C82F0E94A2
:100180009800CA3049F4803410F080E001C080E467
:1001900080580E94A50004C061E08C2F0E9461007D
:1001A000CF910895CF93DF93EC012196FC018081DC
:1001B000882329F00E94BD0089918111FBCFDF9136
:1001C000CF9108951F93CF93DF93182F81B38F673B
:1001D00081BB80E09AEF0197F1F7919A909A0E9483
:1001E0005D0080E09EE40197F1F70E945D00C0E0B1
:1001F000D1E0CE010197F1F70E945D00CE01019799
:10020000F1F790980E945D002197F1F788E20E9433
:10021000A50088E00E94A5000E94B90086E00E9427
:10022000A500812F0E94A500DF91CF911F91089515
:1002300080E487B987E886B9089597B1987F877079
:10024000892B87B9369A3699FECF84B195B1089536
:10025000CF93DF93CDB7DEB72A970FB6F894DEBF02
:100260000FBECDBF81E084BB0E9418018EE00E94CA
:10027000E20081EE94E00197F1F700C0000080E019
:100280000E941D018C0160E080E00E94AF0080E0D0
:1002900091E00E94D20061E080E00E94AF008FE018
:1002A00091E00E94D2004AE050E0BE016F5F7F4FB4
:1002B000C8010E946D01CE0101960E94D20083EC1C
:1002C00099E00197F1F700C00000043F114010F4DD
:1002D00015BAD5CF81E085BBD2CF4532510520F488
:1002E000423010F00C947801FB011082CB0108958C
:1002F000BB274A3031F4992322F4BDE290958195D1
:100300009F4F0C948401BB27FB015527AA27880F18
:10031000991FAA1FA41710F0A41B83955051B9F779
:10032000A05DAA3308F0A95DA193009779F7B111F8
:10033000B1931192CB010C949D01DC01FC01672F5C
:1003400071917723E1F7329704C07C916D937083AC
:0E0350006291AE17BF07C8F30895F894FFCF6F
:10035E004349524355495420444947455354004C50
:08036E004445207265733D0057
:00000001FF
