:100000000C942A000C9447000C9447000C94470071
:100010000C9447000C9447000C9447000C94470044
:100020000C9447000C9447000C9447000C94470034
:100030000C9447000C94BC000C9447000C944700AF
:100040000C9447000C9447000C9447000C94470014
:100050000C94470011241FBECFE5D8E0DEBFCDBF12
:1000600010E0A0E6B0E0ECEAF5E002C005900D92E9
:10007000AA3FB107D9F721E0AAEFB0E001C01D9275
:10008000A83EB207E1F70E9411020C94D4020C942E
:1000900000008BBB84E088BB8FEC97E00197F1F701
:1000A00000C0000018BA9FE728E381E0915020408B
:1000B0008040E1F700C00000089588E30E944900F5
:1000C0008FEC97E00197F1F700C0000081E00E94FB
:1000D00049008FEC97E00197F1F700C000008EE037
:1000E0000E9449008FEC97E00197F1F700C00000F3
:1000F00008958BBB85E088BB8FEC97E00197F1F703
:1001000000C0000081E088BB9FE728E381E09150B8
:1001100020408040E1F700C0000008950F931F9336
:10012000CF93DF93662351F08C01EC01060F111D74
:1001300089910E947900C017D107D1F7DF91CF9143
:100140001F910F91089581E00E944900089580E871
:100150000E94490008958BBBC19888B3856088BB15
:1001600082E08A95F1F700C0C2988FEC97E0019782
:10017000F1F700C0000008951F920F920FB60F9282
:1001800011248F939F93EF93FF93E091E601F091F9
:10019000E7018CB1E550FF4F80838091E60190919B
:1001A000E70101969093E7018093E60181E0809357
:1001B000FA00FF91EF919F918F910F900FBE0F90DA
:1001C0001F901895CF93DF931092E7011092E601EC
:1001D000E091E601F091E701E550FF4F80818D301D
:1001E00049F0E091E601F091E701E550FF4F808191
:1001F0008A3051F48091E6019091E7010196909345
:10020000E7018093E601E4CF80EC0E944900C0E062
:10021000D0E019C0E091E601F091E701E550FF4F11
:1002200080810E94AB008091E6019091E7010196E8
:100230009093E7018093E6012196CF30D10519F420
:1002400080E80E944900E091E601F091E701E55065
:10025000FF4F80818D30F1F61092E7011092E60198
:10026000EBEFF0E001900020E9F73197AF014B5F31
:10027000504060E070E08BEF90E00E94A502DF91BB
:10028000CF9108956F927F928F929F92AF92BF927B
:10029000CF92DF92EF92FF920F931F93CF93DF9352
:1002A00000D0CDB7DEB7E12CF12C0F2EFBEFCF2E17
:1002B000F0E0DF2EF02D612C712CF6010190002072
:1002C000E9F73197EB5FF040F1F1AFE9BFE011974B
:1002D000F1F700C00000BFEFEB1AFB0AD6010D904A
:1002E0000020E9F71197AB5FB040EA17FB0759F51B
:1002F0001E161F0644F50F2EFBEFAF2EF0E0BF2EAB
:10030000F02D8F0105501F4F862C972C8A818983F1
:10031000F50181915F018A8342E050E061EA70E07B
:10032000CE0101960E94AC02892B51F0C4010196C6
:10033000F2E08F16910419F40E94E20013C04C0100
:10034000A016B10619F78FEC97E00197F1F700C0FE
:1003500000009FEFE91AF90AA0E6EA16AAEEFA06EB
:1003600008F4ABCF0F900F90DF91CF911F910F91B9
:10037000FF90EF90DF90CF90BF90AF909F908F90C5
:100380007F906F90089580EC0E94490084EA90E08D
:100390000E9474022FEF84E39CE021508040904043
:1003A000E1F700C000006AEA70E08BEF90E00E9485
:1003B000BA02892B71F10E94420180EAEBEFF0E072
:1003C000DF011D928A95E9F7BFEF29E688E1B15078
:1003D00020408040E1F700C000000E94A3000E947E
:1003E000A70069E08DEA90E00E948E0080EC0E94F8
:1003F000490087EB90E00E9474020E9442019FEF47
:10040000A9E6B8E19150A040B040E1F700C000007B
:1004100008950E94A70065E082EC90E00E948E00A3
:10042000B2CF8FEF8ABB87E087BB1092E7011092B3
:10043000E6010E945D0060E875E280E090E00E94C5
:10044000420278940E94A70060E188EC90E00E944C
:100450008E002FEF8DE399E4215080409040E1F72A
:1004600000C000000E94A3000E94A70062E089ED86
:1004700090E00E948E000E94C3010E94A30080E0D1
:1004800090E008952AB128692AB920B5266820BDD0
:10049000DC01CB01880F991FAA1FBB1F880F991F72
:1004A000AA1FBB1F9C01AD01220F331F441F551F04
:1004B000220F331F441F551F60E072E18AE790E06E
:1004C0000E9483028FEF820F89B9DA01C901019777
:1004D000A109B109892F9A2FAB2FBB2780BD0895A1
:1004E0008CB95D9BFECF0895CF93DF93EC0188819B
:1004F000882331F021960E94700289918111FBCFEF
:10050000DF91CF910895A1E21A2EAA1BBB1BFD011A
:100510000DC0AA1FBB1FEE1FFF1FA217B307E407E2
:10052000F50720F0A21BB30BE40BF50B661F771F3A
:10053000881F991F1A9469F760957095809590951A
:100540009B01AC01BD01CF010895DC0101C06D9399
:1005500041505040E0F70895FB01DC01415050400C
:1005600030F08D910190801919F40020B9F7881BA3
:10057000990B0895FB0151915523A9F0BF01DC01AE
:100580004D9145174111E1F759F4CD01019000203B
:1005900049F04D9140154111C9F3FB014111EFCFD5
:0C05A00081E090E001970895F894FFCFEF
:1005AC0041542B434D47443D25640D0041542B438E
:1005BC004D4744413D2244454C20414C4C220D00BA
:1005CC00434D54493A0041542B434D47533D22254A
:1005DC0073220D0041544425733B0D004154480DCA
:1005EC00000D0A00415445300D004F4B0054657806
:1005FC0074204D6F64650041542B434D47463D318B
:10060C000D004572726F720047534D20496E69742C
:10061C0069616C697A696E67004154002B434D47E0
:10062C0052004E6F206D6573736167650041542BEA
:0A063C00434D47523D25640D0000B8
:00000001FF
