:100000000C942A000C9447000C9447000C94470071
:100010000C9447000C9447000C9447000C94470044
:100020000C9447000C9447000C9447000C94470034
:100030000C9447000C9488010C9447000C944700E2
:100040000C9447000C9447000C9447000C94470014
:100050000C94470011241FBECFE5D8E0DEBFCDBF12
:1000600011E0A0E6B0E0E6EFF0E102C005900D92ED
:10007000A633B107D9F722E0A6E3B1E001C01D9293
:10008000A532B207E1F70E9418040C9479080C9489
:10009000000088BB85B38C7F85BBAA9A82E08A95D5
:1000A000F1F700C0AA988FE697E10197F1F700C039
:1000B0000000089588BBA99885B3856085BB82E060
:1000C0008A95F1F700C0AA988FEC97E00197F1F7B5
:1000D00000C00000089584B3876084BB8FEF87BBA6
:1000E0008FE39CE90197F1F700C0000088E30E94CC
:1000F00049008CE00E94490086E00E94490081E0AE
:100100000E94490080E80E9449000895CF93DF9340
:10011000EC018881882331F021960E945A00899150
:100120008111FBCFDF91CF910895CF93DF93EA0147
:10013000813031F4862F8F7080680E94490007C09B
:10014000823029F4862F8F70806C0E944900CE0186
:100150000E948600DF91CF91089581E00E944900BE
:1001600008950F931F93CF93DF93CDB7DEB76497B6
:100170000FB6F894DEBF0FBECDBF109224021092CE
:1001800023029F938F9380E690E09F938F938E013D
:100190000F5F1F4F1F930F930E948F05C8010E948E
:1001A00009050F900F900F900F900F900F9064968D
:1001B0000FB6F894DEBF0FBECDBFDF91CF911F9178
:1001C0000F910895CF93DF9300D000D0CDB7DEB765
:1001D0002FEF84E39CE0215080409040E1F700C085
:1001E00000001092240210922302E0912302F09169
:1001F0002402E75CFE4F80818D3049F0E0912302BC
:10020000F0912402E75CFE4F80818A3051F48091A6
:10021000230290912402019690932402809323025A
:10022000E4CF60E870E089E391E00E946D05892BDE
:1002300009F466C0E0912302F0912402E75CFE4FCE
:1002400080818C3291F0809123029091240201965A
:100250009093240280932302E0912302F0912402E0
:10026000E75CFE4F80818C3271F780912302909180
:10027000240201969093240280932302E0912302AA
:10028000F0912402E75CFE4F80818D30E1F0DE01C9
:100290001196E0912302F0912402E75CFE4F8081E9
:1002A0008D938091230290912402019690932402D1
:1002B00080932302E0912302F0912402E75CFE4F39
:1002C00080818D3031F7CE0101960E943A059093DE
:1002D000370180933601E9E3F1E001900020E9F76E
:1002E0003197AF014953514060E070E089E391E0FC
:1002F0000E945805109224021092230281E001C04E
:1003000080E00F900F900F900F90DF91CF910895A4
:100310001F920F920FB60F9211248F939F93EF931A
:10032000FF93E0912302F09124028CB1E75CFE4F31
:10033000808380912302909124020196909324025D
:100340008093230281E080933801FF91EF919F9188
:100350008F910F900FBE0F901F9018950F931F93C2
:10036000CF93DF93CDB7DEB764970FB6F894DEBFB7
:100370000FBECDBF9F938F9384E990E09F938F939F
:100380008E010F5F1F4F1F930F930E948F05C801AF
:100390000E9409050F900F900F900F900F900F90F3
:1003A00064960FB6F894DEBF0FBECDBFDF91CF913C
:1003B0001F910F9108950E94AD008CE990E00E947A
:1003C00009050895CF93DF9310922402109223021F
:1003D000E0912302F0912402E75CFE4F80818D3092
:1003E00049F0E0912302F0912402E75CFE4F808106
:1003F0008A3051F4809123029091240201969093C7
:10040000240280932302E4CF80EC0E944900C0E0E4
:10041000D0E019C0E0912302F0912402E75CFE4F86
:1004200080810E945A0080912302909124020196BB
:1004300090932402809323022196CF30D10519F4A2
:1004400080E80E944900E0912302F0912402E75CD9
:10045000FE4F80818D30F1F610922402109223021B
:10046000E9E3F1E001900020E9F73197AF0149534A
:10047000514060E070E089E391E00E945805DF910F
:10048000CF9108956F927F928F929F92AF92BF9279
:10049000CF92DF92EF92FF920F931F93CF93DF9350
:1004A00000D0CDB7DEB7E12CF12C0F2EF9E3CF2E23
:1004B000F1E0DF2EF02D612C712CF601019000206F
:1004C000E9F73197E953F140F1F1AFE9BFE0119756
:1004D000F1F700C00000BFEFEB1AFB0AD6010D9048
:1004E0000020E9F71197A953B140EA17FB0759F526
:1004F0001E161F0644F50F2EF9E3AF2EF1E0BF2EB6
:10050000F02D8F01075C1E4F862C972C8A818983E2
:10051000F50181915F018A8342E050E061EA70E079
:10052000CE0101960E945F05892B51F0C40101960E
:10053000F2E08F16910419F40E94E20113C04C01FD
:10054000A016B10619F78FEC97E00197F1F700C0FC
:1005500000009FEFE91AF90AA0E6EA16AAEEFA06E9
:1005600008F4ABCF0F900F90DF91CF911F910F91B7
:10057000FF90EF90DF90CF90BF90AF909F908F90C3
:100580007F906F90089580EC0E94490084EA90E08B
:100590000E9409052FEF81EE94E0215080409040A9
:1005A000E1F700C000006AEA70E089E391E00E9490
:1005B0006D05892B69F10E94420280EAE9E3F1E0CE
:1005C000DF011D928A95E9F7BFEF29E688E1B15076
:1005D00020408040E1F700C000000E94AD004DEADD
:1005E00050E060E081E00E94950080EC0E944900AC
:1005F00087EB90E00E9409050E9442029FEFA9E666
:10060000B8E19150A040B040E1F700C0000008956B
:1006100089E391E00E948600B6CF0F931F93CF939A
:10062000DF932FEF84E39CE0215080409040E1F77E
:1006300000C0000062EC70E089E391E00E946D056B
:10064000892B39F448EC50E060E081E00E9495008D
:10065000B9C01092240210922302E0912302F0917B
:100660002402E75CFE4F80818D3099F0E0912302F7
:10067000F0912402E75CFE4F80818E3651F0E091CC
:100680002302F0912402E75CFE4F80818C3259F402
:100690001CC0809123029091240201969093240221
:1006A00080932302DACF8091230290912402019655
:1006B0009093240280932302E0912302F09124027C
:1006C000E75CFE4F80818C3271F78091230290911C
:1006D000240202969093240280932302A9EDB1E0B4
:1006E00026EE31E0E0912302F0912402E75CFE4F18
:1006F00080818D93809123029091240201969093A2
:10070000240280932302A217B30761F7809123028A
:100710009091240201969093240280932302E09109
:100720002302F0912402E85CFE4F80818A3071F749
:1007300080EC0E94490007EE11E0C0E0D0E023C049
:10074000E0912302F0912402E75CFE4F80810E9439
:100750005A00E0912302F0912402E75CFE4F808171
:10076000F80181938F0180912302909124020196D8
:1007700090932402809323022196C031D10519F46D
:1007800080E80E944900E0912302F0912402E75C96
:10079000FE4F80818D3019F0CF31D10589F610924E
:1007A000240210922302E9E3F1E001900020E9F72E
:1007B0003197AF014953514060E070E089E391E027
:1007C0000E94580510923801DF91CF911F910F912F
:1007D00008950F931F93CF93DF93CDB7DEB72A977A
:1007E0000FB6F894DEBF0FBECDBF9F938F9383EDFE
:1007F00090E09F938F938E010F5F1F4F1F930F9376
:100800000E948F05C8010E9409050E940D030F90E8
:100810000F900F900F900F900F902A960FB6F894AC
:10082000DEBF0FBECDBFDF91CF911F910F91089515
:1008300010922402109223028CE3E7EEF1E0DF0134
:100840001D928A95E9F70E946B0060E875E280E0EE
:1008500090E00E94D70478944FED50E060E081E092
:100860000E949500BFEF2DE339E4B15020403040A5
:10087000E1F700C000000E94AD0040EF50E060E0F2
:1008800081E00E9495000E94C3020E94AD00DEE05C
:10089000CCE380913801813009F074C00E94E200FD
:1008A000882309F46BC00E94AD0043EF50E060E084
:1008B00081E00E9495008FEF99E6A8E18150904079
:1008C000A040E1F700C000000E94AD008091360119
:1008D000909137010E94E903BFEF2DE339E4B15055
:1008E00020403040E1F700C000006FEF70E087EE7D
:1008F00091E00E946D05892B41F189ED91E00E9404
:10090000AE010E94AD0047E051E060E081E00E944E
:1009100095008FEF9CE2A1E3B1E081509040A040B0
:10092000B040D9F700C000000E94DB0142E151E075
:1009300060E081E00E9495002FEF39E688E12150C8
:1009400030408040E1F700C000000E94AD0080917F
:100950003601909137010E94B1004CE151E060E016
:1009600081E00E9495000E9442029FEFA9E6B8E153
:100970009150A040B040E1F700C000001092380153
:100980000E94AD0046E251E060E081E00E949500E7
:10099000E9EDF1E0DF012D2F1D922A95E9F7E7EE51
:1009A000F1E0DF012C2F1D922A95E9F772CF2AB1D1
:1009B00028692AB920B5266820BDDC01CB01880F43
:1009C000991FAA1FBB1F880F991FAA1FBB1F9C013D
:1009D000AD01220F331F441F551F220F331F441F29
:1009E000551F60E072E18AE790E00E9418058FEFE2
:1009F000820F89B9DA01C9010197A109B109892FCB
:100A00009A2FAB2FBB2780BD08958CB95D9BFECF7D
:100A10000895CF93DF93EC018881882331F02196EC
:100A20000E94050589918111FBCFDF91CF91089537
:100A3000A1E21A2EAA1BBB1BFD010DC0AA1FBB1FE2
:100A4000EE1FFF1FA217B307E407F50720F0A21B54
:100A5000B30BE40BF50B661F771F881F991F1A94C1
:100A600069F760957095809590959B01AC01BD01EB
:100A7000CF010895FC0188279927E894219120321D
:100A8000E9F3293010F02E30C8F32B3241F02D322B
:100A900039F4689404C00E948705820F911D21914A
:100AA00020532A30C0F31EF4909581959F4F0895EE
:100AB000DC0101C06D9341505040E0F70895FB0107
:100AC000DC014150504030F08D910190801919F4B3
:100AD0000020B9F7881B990B0895FB01519155230C
:100AE000A9F0BF01DC014D9145174111E1F759F41F
:100AF000CD010190002049F04D9140154111C9F3FD
:100B0000FB014111EFCF81E090E0019708957AE079
:100B1000979F902D879F802D910D11240895AEE011
:100B2000B0E0E5E9F5E00C9450080D891E8986E0F7
:100B30008C831A8309838FEF9FE79E838D83AE0199
:100B4000475E5F4F6F89788DCE0101960E94B10597
:100B5000EF81F885E00FF11F10822E96E4E00C94EF
:100B60006C08ABE0B0E0E7EBF5E00C9442086C01F8
:100B70007B018A01FC0117821682838181FFCCC12F
:100B8000CE0101963C01F6019381F70193FD859119
:100B900093FF81917F01882309F4BAC1853239F42A
:100BA00093FD859193FF81917F01853229F4B601F0
:100BB00090E00E94A807E7CF912C212C312CFFE177
:100BC000F315D8F08B3279F038F4803279F0833233
:100BD000A1F4232D20611DC08D3261F0803369F4B2
:100BE000232D216016C0832D8260382EE32DE46012
:100BF0003E2E2AC0F32DF8601DC037FC2DC020ED1D
:100C0000280F2A3040F08E32B9F436FC81C1232DF2
:100C10002064322E19C036FE06C08AE0989E200D50
:100C20001124922E11C0EAE02E9E200D1124222EB6
:100C3000F32DF0623F2E08C08C3621F4832D80689E
:100C4000382E02C0883641F4F70193FD859193FF59
:100C500081917F018111B3CF982F9F7D955493305F
:100C600028F40C5F1F4F9FE399830DC0833631F04A
:100C7000833771F0833509F059C021C0F8018081B4
:100C800089830E5F1F4F88248394912C530113C0D6
:100C90002801F2E04F0E511CF801A080B18036FE11
:100CA00003C0692D70E002C06FEF7FEFC5010E94A5
:100CB0009D074C018201F32DFF773F2E16C02801BE
:100CC00022E0420E511CF801A080B18036FE03C024
:100CD000692D70E002C06FEF7FEFC5010E9492079F
:100CE0004C01F32DF0683F2E820133FC1BC0822D96
:100CF00090E088169906B0F4B60180E290E00E9478
:100D0000A8072A94F4CFF50137FC859137FE81912D
:100D10005F01B60190E00E94A80721102A9421E00B
:100D2000821A91088114910471F7E8C0843611F099
:100D3000893641F5F80137FE07C0608171818281F3
:100D400093810C5F1F4F08C060817181072E000CDA
:100D5000880B990B0E5F1F4FF32DFF763F2E97FFE9
:100D600009C090958095709561957F4F8F4F9F4FEB
:100D7000F0683F2E2AE030E0A3010E94E407882EAD
:100D8000861845C0853731F4232D2F7EB22E2AE0F8
:100D900030E025C0932D997FB92E8F36C1F018F41D
:100DA000883579F0B5C0803719F0883721F0B0C0A8
:100DB000E92FE061BE2EB4FE0DC0FB2DF460BF2E06
:100DC00009C034FE0AC0292F2660B22E06C028E0D2
:100DD00030E005C020E130E002C020E132E0F8015F
:100DE000B7FE07C060817181828193810C5F1F4FC4
:100DF00006C06081718180E090E00E5F1F4FA3010B
:100E00000E94E407882E8618FB2DFF773F2E36FEC2
:100E10000DC0232D2E7FA22E891458F434FE0BC052
:100E200032FC09C0832D8E7EA82E05C0B82CA32CC1
:100E300003C0B82C01C0B92CA4FE0FC0FE01E80D00
:100E4000F11D8081803321F49A2D997EA92E09C04D
:100E5000A2FE06C0B394B39404C08A2D867809F02C
:100E6000B394A3FC11C0A0FE06C0B21488F4280CF1
:100E7000922C9B180EC0B21460F4B60180E290E090
:100E80000E94A807B394F7CFB21418F42B1802C02D
:100E9000982C212CA4FE10C0B60180E390E00E94A3
:100EA000A807A2FE17C0A1FC03C088E790E002C01B
:100EB00088E590E0B6010CC08A2D867859F0A1FE35
:100EC00002C08BE201C080E2A7FC8DE2B60190E097
:100ED0000E94A807891438F4B60180E390E00E94CC
:100EE000A8079A94F7CF8A94F301E80DF11D808149
:100EF000B60190E00E94A8078110F5CF222009F4E6
:100F000042CEB60180E290E00E94A8072A94F6CF74
:100F1000F6018681978102C08FEF9FEF2B96E2E169
:100F20000C945E08FC010590615070400110D8F7E8
:100F3000809590958E0F9F1F0895FC016150704021
:100F400001900110D8F7809590958E0F9F1F0895FE
:100F50000F931F93CF93DF93FB01238121FD03C0E8
:100F60008FEF9FEF2CC022FF16C04681578124814E
:100F700035814217530744F4A081B1819D012F5F51
:100F80003F4F318320838C93268137812F5F3F4FE2
:100F90003783268314C08B01EC01FB010084F185AB
:100FA000E02D0995892BE1F6D80116968D919C913B
:100FB0001797019617969C938E931697CE01DF9103
:100FC000CF911F910F910895FA01AA27283051F16E
:100FD000203181F1E8946F936E7F6E5F7F4F8F4F6A
:100FE0009F4FAF4FB1E03ED0B4E03CD0670F781FC9
:100FF000891F9A1FA11D680F791F8A1F911DA11DAE
:101000006A0F711D811D911DA11D20D009F46894E6
:101010003F912AE0269F11243019305D3193DEF68E
:10102000CF010895462F4770405D4193B3E00FD044
:10103000C9F7F6CF462F4F70405D4A3318F0495D2F
:1010400031FD4052419302D0A9F7EACFB4E0A69512
:101050009795879577956795BA95C9F70097610534
:10106000710508959B01AC010A2E0694579547958A
:1010700037952795BA95C9F7620F731F841F951F7F
:10108000A01D08952F923F924F925F926F927F9290
:101090008F929F92AF92BF92CF92DF92EF92FF9288
:1010A0000F931F93CF93DF93CDB7DEB7CA1BDB0B34
:1010B0000FB6F894DEBF0FBECDBF09942A883988D9
:1010C00048885F846E847D848C849B84AA84B984E0
:1010D000C884DF80EE80FD800C811B81AA81B981EC
:1010E000CE0FD11D0FB6F894DEBF0FBECDBFED0100
:0610F0000895F894FFCF03
:1010F60041542B434D47443D25640D0041542B4339
:101106004D4744413D2244454C20414C4C220D0064
:10111600434D54493A0041542B434D47533D2225F4
:1011260073220D0041544425733B0D004154480D74
:10113600000D0A00415445300D004F4B00546578B0
:1011460074204D6F64650041542B434D47463D3135
:101156000D002B434D4752004E6F206D6573736132
:1011660067650041542B434D47523D25640D0047AA
:10117600534D20496E697469616C697A696E6700BE
:101186004154006E6577206D657373616765006312
:10119600616C6C206D650043616C6C696E672E2E08
:1011A6002E0048616E672043616C6C00436C65617C
:1011B60072206D73670077616974696E6720666F68
:0611C60072206D7367004A
:00000001FF
