:100000000C946B000C9488000C9488000C9488006D
:100010000C9488000C9488000C9488000C94880040
:100020000C9488000C9488000C9488000C94880030
:100030000C9488000C9488000C9488000C94880020
:100040000C9488000C9488000C9488000C94880010
:100050000C94880007634236B79BD8A71A396856B4
:1000600018AEBAAB558C1D3CB7CC5763BD6DEDFDDA
:10007000753EF6177231BF000000803F0800000097
:10008000BE922449123EABAAAA2ABECDCCCC4C3E8D
:1000900000000080BEABAAAAAA3E00000000BF007C
:1000A0000000803F0000000000084178D3BB438778
:1000B000D1133D190E3CC3BD4282AD2B3E68EC828C
:1000C00076BED98FE1A93E4C80EFFFBE01C4FF7F11
:1000D0003F000000000011241FBECFE5D8E0DEBFC6
:1000E000CDBF11E0A0E6B0E0E8E7F8E102C005907E
:1000F0000D92A032B107D9F721E0A0E2B1E001C032
:100100001D92AB32B207E1F70E94F8040C943A0C4E
:100110000C9400008BBB84E088BB89EF90E00197D2
:10012000F1F700C0000018BA83ED90E30197F1F7F2
:1001300000C00000089588E30E948A0089EF90E0E3
:100140000197F1F700C0000081E00E948A0089EF6A
:1001500090E00197F1F700C000008EE00E948A0055
:1001600089EF90E00197F1F700C0000008958BBB84
:1001700085E088BB89EF90E00197F1F700C00000AF
:1001800081E088BB83ED90E30197F1F700C00000A8
:100190000895EF92FF921F93CF93DF937C01162F68
:1001A000C0E0D0E007C0F701EC0FFD1F80810E9486
:1001B000B7002196812F90E0C817D907A4F3DF91EB
:1001C000CF911F91FF90EF90089590E0C097089510
:1001D00081E00E948A00089580E80E948A000895C4
:1001E00080EC0E948A0008958FEE85BB83EC99E035
:1001F0000197F1F700C00000989B30C0999B30C078
:100200009A9B30C08FED85BB83EC99E00197F1F7A5
:1002100000C00000989B28C0999B28C09A9B28C0CA
:100220008FEB85BB83EC99E00197F1F700C00000EC
:10023000989B20C0999B20C09A9B20C08FE785BBCC
:1002400083EC99E00197F1F700C00000989B18C07B
:10025000999B18C09A9918C083E2089581E3089584
:1002600082E3089583E3089584E3089585E3089580
:1002700086E3089587E3089588E3089589E3089560
:100280008AE2089580E3089581E6089581E602C038
:100290000E94F4008136E1F3089584B3806284BB48
:1002A000089585B3806285BB85E08A95F1F785B3B3
:1002B0008F7D85BB08958F929F92AF92BF92CF9210
:1002C000DF92EF92FF920F931F93CF93DF93D0E0D3
:1002D000C0E0B0E0A0E0F0E0F12C00E010E015C0DC
:1002E0009E9925C02D2F3C2F4B2F5A2F6F2F7F2DDE
:1002F000802F912FA1E00E940F09D22FC32FB42F7E
:10030000A52FF62FF72E082F192F2D2F3C2F4B2F0F
:100310005A2F6F2F7F2D802F912F2F3B374249402F
:1003200051056105710581059105D1F2C8F22D2FA6
:100330003C2F4B2F5A2F6F2F7F2D802F912F203C3A
:10034000374249405105610571058105910509F460
:1003500069C01FBC82E08EBD1DBC1CBCD0E0C0E0EB
:10036000B0E0A0E0F0E0F12C00E010E01AC09E9BAD
:100370002AC08CB59DB581369A4E28F52D2F3C2F7D
:100380004B2F5A2F6F2F7F2D802F912FA1E00E948E
:100390000F09D22FC32FB42FA52FF62FF72E082F1A
:1003A000192F2D2F3C2F4B2F5A2F6F2F7F2D802F42
:1003B000912F2F3B37424940510561057105810559
:1003C0009105A9F2A0F22D2F3C2F4B2F5A2F6F2F02
:1003D0007F2D802F912F203C3742494051056105E8
:1003E00071058105910519F18CB49DB41EBC282DB1
:1003F000392D40E050E060E070E080E090E0203691
:10040000EAEE3E074105510561057105810591053B
:1004100009F090F401E00E94F308622F732F842FFB
:10042000952F0EC06FEF7FEF8FEF9FEF09C06EEF3C
:100430007FEF8FEF9FEF04C06EEF7FEF8FEF9FEFA7
:10044000DF91CF911F910F91FF90EF90DF90CF90B0
:10045000BF90AF909F908F90089584B3886084BBC5
:1004600085B3877F85BB87E893E10197F1F700C0EB
:10047000000085B3886085BB089584B3877F84BB03
:100480009B99FECF9B9BFECF9B99FECF089520E0CA
:1004900030E019C09B9BFECF8AE08A95F1F79B9BC9
:1004A00009C08091200190E0880F991F816080939E
:1004B000200105C080912001880F809320019B9925
:1004C000FECF2F5F3F4F2830310524F3809120016C
:1004D00008954F925F926F927F928F929F92AF9208
:1004E000BF92CF92DF92EF92FF920F931F93CF9321
:1004F000DF93CDB7DEB764970FB6F894DEBF0FBEBB
:10050000CDBF00E010E00E944601809325010E94CB
:10051000B700809125018332C9F00E94E500F801FF
:10052000EE0FFF1F21E030E02C0F3D1FE20FF31F05
:10053000918380830F5F1F4F3FE58AEE90E031503B
:1005400080409040E1F700C00000DDCF580121E07D
:10055000A21AB108E12CF12C812C912C3BC0F7019F
:10056000EE0FFF1F81E090E08C0F9D1FE80FF91F39
:10057000C080D180B5010B2C000C880B990B0E9418
:1005800001069B01AC0160E070E080E291E40E9412
:10059000FA062B013C01B601DD0C880B990B0E9479
:1005A0000106A30192010E948D062B013C01B401BA
:1005B000990C880B990B0E940106A30192010E94DD
:1005C0005D050E94C9054B0191E0A91AB1082FEF02
:1005D000E21AF20AE016F10614F281E00E948A00A3
:1005E000C40164960FB6F894DEBF0FBECDBFDF9195
:1005F000CF911F910F91FF90EF90DF90CF90BF9020
:10060000AF909F908F907F906F905F904F900895E4
:100610000F931F93CF93DF93CDB7DEB72A970FB613
:10062000F894DEBF0FBECDBF0E94E8000E94EC0030
:100630006BE080E690E00E94C9000E94F00067E055
:100640008CE690E00E94C9000E944601809325013B
:100650000E9469029F938F9384E790E09F938F930A
:100660008E010F5F1F4F1F930F930E94400981E07F
:100670000E948A006FE087E790E00E94C90080EC4A
:100680000E948A006AE0C8010E94C9002FE38DE041
:1006900093E0215080409040E1F700C000000F90AF
:1006A0000F900F900F900F900F902A960FB6F8941E
:1006B000DEBF0FBECDBFDF91CF911F910F91089587
:1006C000CF93DF9300D000D0CDB7DEB787EA91E6B5
:1006D0000197F1F700C000000E94E8000E944D0160
:1006E0000E9451010E945B016F3F2FEF720789F456
:1006F0000E94E80062E085EE90E00E94C9008FE36E
:100700009DE023E0815090402040E1F700C00000D0
:10071000E7CF80E090E00E94FF0526E933E44BE05C
:100720005DE30E948D0620E030E040E05FE30E9440
:100730008D069B01AC0160E070E088E492E40E94C9
:100740005C050E94C90570932401609323012091E8
:100750002101309122012617370711F00E94E8008D
:100760000E94EC006BE086E890E00E94C9004AE03D
:10077000BE016F5F7F4F80912301909124010E9401
:100780001B0963E0CE0101960E94C90062E081E985
:1007900090E00E94C90080912301909124019093E0
:1007A0002201809321018BE49DE10197F1F700C0C4
:1007B000000080912301909124010A973CF40E944B
:1007C000F0006DE084E990E00E94C900809123016F
:1007D000909124010A973CF00E94F0006CE081EABD
:1007E00090E00E94C9000E944601809325018A3250
:1007F00051F09FE729EA83E0915020408040E1F7E3
:1008000000C000006DCF8A3209F060CF0F900F90CA
:100810000F900F90DF91CF910895CF93DF9300D089
:1008200000D01F92CDB7DEB78FEF84BB0E94E800E7
:100830000E94EC000E942D020E943D020E9447028D
:10084000809329010E944702809326010E9447025B
:10085000809328010E94470280932A010E94470248
:1008600080932701E0912901F0E0909126019F01FA
:10087000290F311D90912801290F311D90912A01D6
:10088000290F311D482F50E02417350731F065E05E
:100890008EEA90E00E94C90059C04AE0BE016F5F35
:1008A0007F4FCF010E941B0962E084EB90E00E9421
:1008B000C90062E0CE0101960E94C90061E087EBA9
:1008C00090E00E94C900809126014AE0BE016F5F5E
:1008D0007F4F90E00E941B0962E0CE0101960E94CA
:1008E000C90061E089EB90E00E94C9008091280175
:1008F0004AE0BE016F5F7F4F90E00E941B0962E0FB
:100900008BEB90E00E94C90062E0CE0101960E944C
:10091000C90061E087EB90E00E94C90080912A0144
:100920004AE0BE016F5F7F4F90E00E941B0962E0CA
:10093000CE0101960E94C9008FED0E94B70062E0CF
:100940008EEB90E00E94C9000E94F0002FE986E83B
:1009500091E0215080409040E1F700C000002091DC
:10096000280180912A0190E0820F911D49972CF473
:1009700066E081EC90E00E94C900209128018091FE
:100980002A0190E0820F911D4E972CF067E088ECD1
:1009900090E00E94C900209129018091260190E0F9
:1009A000820F911D8C3491052CF467E080ED90E06E
:1009B0000E94C90087EA91E60197F1F700C00000A4
:1009C0000E944601809325018A3251F09FE729EA6F
:1009D00083E0915020408040E1F700C0000026CF26
:1009E0000F900F900F900F900F90DF91CF9108957F
:1009F0008FEF8ABB87E087BB80EF81BB0E949B00A3
:100A00006EE088ED90E00E94C9002FE789EA93E04C
:100A1000215080409040E1F700C000000E94F000AB
:100A200060E188EE90E00E94C9002FE38DE093E042
:100A3000215080409040E1F700C000000E94E80093
:100A40000E94EC006AE088EF90E00E94C9000E94DA
:100A5000F0006CE083E091E00E94C9002FE789EA92
:100A600093E0215080409040E1F700C000000E94D8
:100A7000E8006FE080E191E00E94C9000E94460119
:100A8000823389F018F4813331F0F1CF833371F080
:100A9000843379F0ECCF0E94E8006CE083E091E0D1
:100AA0000E94C900E4CF0E940803E1CF0E946003C6
:100AB000DECF0E940D04DBCF5058BB27AA270E942F
:100AC00074050C9453060E94450638F00E944C06AB
:100AD00020F039F49F3F19F426F40C9442060EF4EA
:100AE000E095E7FB0C943C06E92F0E94640658F35E
:100AF000BA17620773078407950720F079F4A6F503
:100B00000C9486060EF4E0950B2EBA2FA02D0B0147
:100B1000B90190010C01CA01A0011124FF27591B42
:100B200099F0593F50F4503E68F11A16F040A22F48
:100B3000232F342F4427585FF3CF469537952795B9
:100B4000A795F0405395C9F77EF41F16BA0B620BB8
:100B5000730B840BBAF09150A1F0FF0FBB1F661FFF
:100B6000771F881FC2F70EC0BA0F621F731F841F42
:100B700048F4879577956795B795F7959E3F08F068
:100B8000B0CF9395880F08F09927EE0F979587952A
:100B900008950E94D0056894B1110C9487060895B9
:100BA0000E946C0688F09F5798F0B92F9927B7518B
:100BB000B0F0E1F0660F771F881F991F1AF0BA9501
:100BC000C9F714C0B13091F00E948606B1E00895D3
:100BD0000C948606672F782F8827B85F39F0B93FC5
:100BE000CCF3869577956795B395D9F73EF49095B4
:100BF0008095709561957F4F8F4F9F4F0895E89432
:100C000009C097FB3EF490958095709561957F4F54
:100C10008F4F9F4F9923A9F0F92F96E9BB27939502
:100C2000F695879577956795B795F111F8CFFAF412
:100C3000BB0F11F460FF1BC06F5F7F4F8F4F9F4F43
:100C400016C0882311F096E911C0772321F09EE8A1
:100C5000872F762F05C0662371F096E8862F70E007
:100C600060E02AF09A95660F771F881FDAF7880FE1
:100C70009695879597F9089597F99F6780E870E0B2
:100C800060E008959FEF80EC089500240A94161602
:100C9000170618060906089500240A94121613066A
:100CA000140605060895092E0394000C11F48823F8
:100CB00052F0BB0F40F4BF2B11F460FF04C06F5F14
:100CC0007F4F8F4F9F4F089557FD9058440F551FEA
:100CD00059F05F3F71F04795880F97FB991F61F0BE
:100CE0009F3F79F087950895121613061406551F35
:100CF000F2CF4695F1DF08C0161617061806991FA1
:100D0000F1CF86957105610508940895E894BB2795
:100D100066277727CB0197F908950E94A0060C94C7
:100D200053060E94450638F00E944C0620F0952399
:100D300011F00C943C060C94420611240C94870686
:100D40000E94640670F3959FC1F3950F50E0551F04
:100D5000629FF001729FBB27F00DB11D639FAA2710
:100D6000F00DB11DAA1F649F6627B00DA11D661F5F
:100D7000829F2227B00DA11D621F739FB00DA11D80
:100D8000621F839FA00D611D221F749F3327A00D3A
:100D9000611D231F849F600D211D822F762F6A2FD6
:100DA00011249F5750409AF0F1F088234AF0EE0F3B
:100DB000FF1FBB1F661F771F881F91505040A9F768
:100DC0009E3F510580F00C943C060C9487065F3FD3
:100DD000E4F3983ED4F3869577956795B795F795A4
:100DE000E7959F5FC1F7FE2B880F911D969587951C
:100DF00097F90895FA01EE0FFF1F3096210531058E
:100E0000A1F16115710561F48038BFE39B0749F1D9
:100E100068949038810561F08038BFEF9B0741F0FE
:100E200099234AF5FF3FE1053105210519F1E894C1
:100E30000894E795D901AA2329F4AB2FBE2FF85FB8
:100E4000D0F310C0FF5F70F4A695E0F7F73950F0CB
:100E500019F0FF3A38F49F779F930DD00F9007FC5D
:100E60009058089546F00C94420660E070E080E8E7
:100E70009FE308954FE79F775F934F933F932F939F
:100E80000E94F5072F913F914F915F910E948D062F
:100E90000C94520729F416F00C943C060C94860628
:100EA0000C9442060E946C06A8F39638A0F707F847
:100EB0000F92E8942BE33AEA48EB5FE70E94A3061F
:100EC0000F920F920F924DB75EB70F920E943D089E
:100ED000E4E5F0E00E9484074F915F91EF91FF916C
:100EE000E595EE1FFF1F49F0FE57E0684427EE0F1F
:100EF000441FFA95E1F74195550B0E94B7070F90F3
:100F000007FE0C94AB070895DF93CF931F930F93C5
:100F1000FF92EF92DF927B018C01689406C0DA2E7B
:100F2000EF010E94A006FE01E894A591259135915C
:100F300045915591A6F3EF010E947405FE019701BA
:100F4000A801DA9469F7DF90EF90FF900F911F915D
:100F5000CF91DF9108959B01AC0160E070E080E8E3
:100F60009FE30C9471080C943C060C94E3080E94D7
:100F70006C06D8F39923C9F3940F511DA3F3915034
:100F8000504094F059F0882332F0660F771F881F85
:100F900091505040C1F79E3F51052CF7880F911D8D
:100FA0009695879597F908955F3FACF0983E9CF031
:100FB000BB27869577956795B79508F4B1609395AB
:100FC000C1F7BB0F58F711F460FFE8CF6F5F7F4F99
:100FD0008F4F9F4FE3CF0C94870616F00C94E308D5
:100FE0000C94420668940C943C060E946C06A8F38C
:100FF0009923C1F3AEF3DF93CF931F930F93FF9227
:10100000C92FDD2788232AF02197660F771F881FB5
:10101000DAF720E030E040E85FEB9FE3883920F02A
:10102000803E38F021968F770E945D05ECE7F0E076
:1010300004C00E945D05E9EAF0E00E9484078B018C
:10104000BE01EC01FB2E6F5771097595771F880B58
:10105000990B0E94010628E132E741E35FE30E9419
:10106000A006AF2D9801AE01FF900F911F91CF9177
:10107000DF910E9474050C945306FA01DC01AA0F5B
:10108000BB1F9B01AC01BF5728F4222733274427FD
:10109000507820C0B75190F4AB2F00244695379577
:1010A0002795011CA395D2F3002071F0220F331F66
:1010B000441FB395DAF30ED00C945C0561307105D2
:1010C000A0E88A07B94630F49B01AC016627772770
:1010D00088279078309621F0208331834283538390
:1010E00008950E9485080C9453060E944C0658F0FF
:1010F0000E94450640F029F45F3F29F00C943C061D
:1011000051110C9487060C9442060E94640668F301
:101110009923B1F3552391F3951B550BBB27AA27B0
:1011200062177307840738F09F5F5F4F220F331FEA
:10113000441FAA1FA9F335D00E2E3AF0E0E832D0B2
:1011400091505040E695001CCAF72BD0FE2F29D0B5
:10115000660F771F881FBB1F261737074807AB0787
:10116000B0E809F0BB0B802DBF01FF2793585F4FFC
:101170003AF09E3F510578F00C943C060C9487069B
:101180005F3FE4F3983ED4F3869577956795B795DE
:10119000F7959F5FC9F7880F911D9695879597F9E9
:1011A0000895E1E0660F771F881FBB1F6217730762
:1011B0008407BA0720F0621B730B840BBA0BEE1F77
:1011C00088F7E09508959F3F31F0915020F487957E
:1011D00077956795B795880F911D9695879597F99F
:1011E000089597FB10F8169400080F93083098F0B4
:1011F0000850232F342F452F562F672F782F892FF4
:10120000902DF4CF05949795879577956795579589
:101210004795379527950A95AAF70F9108950024C9
:10122000A7FD00942A0F301D401D501D601D701D2C
:10123000801D901D0895BB274A3031F4992322F474
:10124000BDE2909581959F4F0C942709BB27FB0128
:101250005527AA27880F991FAA1FA41710F0A41BAF
:1012600083955051B9F7A05DAA3308F0A95DA19309
:10127000009779F7B111B1931192CB010C94590BEE
:10128000AEE0B0E0E6E4F9E00C94110C0D891E89A3
:1012900086E08C831A8309838FEF9FE79E838D837B
:1012A000AE01475E5F4F6F89788DCE0101960E9437
:1012B0006209EF81F885E00FF11F10822E96E4E0BD
:1012C0000C942D0CABE0B0E0E8E6F9E00C94030CD4
:1012D0006C017B018A01FC0117821682838181FFE8
:1012E000CCC1CE0101963C01F6019381F70193FD3B
:1012F000859193FF81917F01882309F4BAC18532DA
:1013000039F493FD859193FF81917F01853229F412
:10131000B60190E00E94690BE7CF912C212C312C73
:10132000FFE1F315D8F08B3279F038F4803279F0A0
:101330008332A1F4232D20611DC08D3261F08033F2
:1013400069F4232D216016C0832D8260382EE32D91
:10135000E4603E2E2AC0F32DF8601DC037FC2DC07E
:1013600020ED280F2A3040F08E32B9F436FC81C1CE
:10137000232D2064322E19C036FE06C08AE0989EC6
:10138000200D1124922E11C0EAE02E9E200D112472
:10139000222EF32DF0623F2E08C08C3621F4832DCF
:1013A0008068382E02C0883641F4F70193FD85919C
:1013B00093FF81917F018111B3CF982F9F7D955429
:1013C000933028F40C5F1F4F9FE399830DC0833641
:1013D00031F0833771F0833509F059C021C0F8012D
:1013E000808189830E5F1F4F88248394912C530141
:1013F00013C02801F2E04F0E511CF801A080B1800B
:1014000036FE03C0692D70E002C06FEF7FEFC501AB
:101410000E944E0B4C018201F32DFF773F2E16C028
:10142000280122E0420E511CF801A080B18036FE56
:1014300003C0692D70E002C06FEF7FEFC5010E940D
:10144000430B4C01F32DF0683F2E820133FC1BC08F
:10145000822D90E088169906B0F4B60180E290E003
:101460000E94690B2A94F4CFF50137FC859137FE71
:1014700081915F01B60190E00E94690B21102A94CE
:1014800021E0821A91088114910471F7E8C0843632
:1014900011F0893641F5F80137FE07C0608171818E
:1014A000828193810C5F1F4F08C060817181072E7C
:1014B000000C880B990B0E5F1F4FF32DFF763F2E0C
:1014C00097FF09C090958095709561957F4F8F4FDC
:1014D0009F4FF0683F2E2AE030E0A3010E94A50B49
:1014E000882E861845C0853731F4232D2F7EB22EE5
:1014F0002AE030E025C0932D997FB92E8F36C1F0B8
:1015000018F4883579F0B5C0803719F0883721F0A4
:10151000B0C0E92FE061BE2EB4FE0DC0FB2DF4601B
:10152000BF2E09C034FE0AC0292F2660B22E06C085
:1015300028E030E005C020E130E002C020E132E0E8
:10154000F801B7FE07C060817181828193810C5FD1
:101550001F4F06C06081718180E090E00E5F1F4FD9
:10156000A3010E94A50B882E8618FB2DFF773F2E26
:1015700036FE0DC0232D2E7FA22E891458F434FE82
:101580000BC032FC09C0832D8E7EA82E05C0B82C5E
:10159000A32C03C0B82C01C0B92CA4FE0FC0FE01BF
:1015A000E80DF11D8081803321F49A2D997EA92EBA
:1015B00009C0A2FE06C0B394B39404C08A2D8678F5
:1015C00009F0B394A3FC11C0A0FE06C0B21488F4C5
:1015D000280C922C9B180EC0B21460F4B60180E265
:1015E00090E00E94690BB394F7CFB21418F42B1853
:1015F00002C0982C212CA4FE10C0B60180E390E01C
:101600000E94690BA2FE17C0A1FC03C088E790E00E
:1016100002C088E590E0B6010CC08A2D867859F0AA
:10162000A1FE02C08BE201C080E2A7FC8DE2B60100
:1016300090E00E94690B891438F4B60180E390E0D1
:101640000E94690B9A94F7CF8A94F301E80DF11D7B
:101650008081B60190E00E94690B8110F5CF2220B5
:1016600009F442CEB60180E290E00E94690B2A9410
:10167000F6CFF6018681978102C08FEF9FEF2B9600
:10168000E2E10C941F0CFC010590615070400110C8
:10169000D8F7809590958E0F9F1F0895FC0161509B
:1016A000704001900110D8F7809590958E0F9F1F84
:1016B0000895DC01FC01672F71917723E1F73297E0
:1016C00004C07C916D9370836291AE17BF07C8F31D
:1016D00008950F931F93CF93DF93FB01238121FD87
:1016E00003C08FEF9FEF2CC022FF16C046815781A9
:1016F000248135814217530744F4A081B1819D01B3
:101700002F5F3F4F318320838C93268137812F5F5A
:101710003F4F3783268314C08B01EC01FB0100840B
:10172000F185E02D0995892BE1F6D80116968D916A
:101730009C911797019617969C938E931697CE01BE
:10174000DF91CF911F910F910895FA01AA272830B8
:1017500051F1203181F1E8946F936E7F6E5F7F4F7E
:101760008F4F9F4FAF4FB1E03ED0B4E03CD0670FFA
:10177000781F891F9A1FA11D680F791F8A1F911D4D
:10178000A11D6A0F711D811D911DA11D20D009F49D
:1017900068943F912AE0269F11243019305D3193DF
:1017A000DEF6CF010895462F4770405D4193B3E0C8
:1017B0000FD0C9F7F6CF462F4F70405D4A3318F06F
:1017C000495D31FD4052419302D0A9F7EACFB4E020
:1017D000A6959795879577956795BA95C9F70097D8
:1017E0006105710508959B01AC010A2E0694579579
:1017F000479537952795BA95C9F7620F731F841FD0
:10180000951FA01D08952F923F924F925F926F9265
:101810007F928F929F92AF92BF92CF92DF92EF9280
:10182000FF920F931F93CF93DF93CDB7DEB7CA1B01
:10183000DB0B0FB6F894DEBF0FBECDBF09942A882C
:10184000398848885F846E847D848C849B84AA84D4
:10185000B984C884DF80EE80FD800C811B81AA8161
:10186000B981CE0FD11D0FB6F894DEBF0FBECDBF2C
:08187000ED010895F894FFCF8B
:10187800454E54455220504C414E5400434F554E0E
:10188800543A2000256400504C414E5420434F5593
:101898004E54204953005741544552204C56203D40
:1018A80000636D005741544552204C4F5721212168
:1018B80000454E4F55474820574154455200457200
:1018C800726F7200483D002E002500543D004320F1
:1018D8000048204F4E2020004641204F4E20200037
:1018E800464F204F4E20200048454C4C4F21205752
:1018F800454C434F4D45210066726F6D207E47521F
:101908004F55502030367E00454E544552203120E8
:10191800544F00494E535452554354494F4E530067
:10192800454E54455220434F4D4D414E443A0000D8
:00000001FF
