S00E0000417433322D722E737265635D
S11300000C942A000C9447000C9447000C9447006D
S11300100C9447000C9447000C9447000C94470040
S11300200C9447000C9447000C9447000C94470030
S11300300C9447000C9447000C9447000C94470020
S11300400C9447000C9447000C9447000C94470010
S11300500C94470011241FBECFE5D8E0DEBFCDBF0E
S113006010E0A0E6B0E0ECEDF6E002C005900D92E1
S1130070AA36B107D9F720E0AAE6B0E001C01D9284
S1130080AA36B207E1F70E941F010C946C030C948A
S1130090000082BB84E088BB89EF90E00197F1F710
S11300A000C0000018BA83ED90E30197F1F700C097
S11300B00000089588E30E94490089EF90E00197C9
S11300C0F1F700C0000081E00E94490089EF90E050
S11300D00197F1F700C000008EE00E94490089EF0B
S11300E090E00197F1F700C00000089582BB85E01D
S11300F088BB89EF90E00197F1F700C0000081E030
S113010088BB81EE94E00197F1F700C000000895E8
S1130110EF92FF921F93CF93DF937C01162FC0E0E1
S1130120D0E007C0F701EC0FFD1F80810E9476002C
S11301302196812F90E0C817D907A4F3DF91CF91BE
S11301401F91FF90EF90089581E00E944900089567
S113015080E80E944900089580E487B987E886B959
S11301600895877097B1987F892B87B986B1806489
S113017086B93699FECF84B195B10895CF93DF93B4
S1130180CDB7DEB72A970FB6F894DEBF0FBECDBF4A
S11301900E94AC000E94A40081EE94E00197F1F764
S11301A000C0000080E00E94B100BC0180E090E04B
S11301B00E943C022AE037ED43E25CE30E94CA025B
S11301C026E636E646E050E40E9494016B017C0189
S11301D020E030E040E251E40E94CA024B015C019D
S11301E0A701960160E070E080EA90E40E94270194
S11301F09B01AC01C501B4010E9494016B017C0117
S11302000E94A80069E080E690E00E948800C7018F
S1130210B6010E940602DC01CB014AE0BE016F5F19
S11302207F4F0E94370365E0CE0101960E9488004B
S113023083EC99E00197F1F700C00000B3CF8FEF92
S113024087BB87E081BB0E945A000E94BE005058C1
S1130250BB27AA270E943F010C9490020E948202AD
S113026038F00E94890220F039F49F3F19F426F4F3
S11302700C947F020EF4E095E7FB0C947902E92FCD
S11302800E94A10258F3BA176207730784079507FF
S113029020F079F4A6F50C94C3020EF4E0950B2E2D
S11302A0BA2FA02D0B01B90190010C01CA01A001C4
S11302B01124FF27591B99F0593F50F4503E68F11F
S11302C01A16F040A22F232F342F4427585FF3CF60
S11302D0469537952795A795F0405395C9F77EF431
S11302E01F16BA0B620B730B840BBAF09150A1F07A
S11302F0FF0FBB1F661F771F881FC2F70EC0BA0F00
S1130300621F731F841F48F4879577956795B79587
S1130310F7959E3F08F0B0CF9395880F08F0992782
S1130320EE0F9795879508950E94A8010C9490026A
S11303300E94890258F00E94820240F029F45F3F33
S113034029F00C94790251110C94C4020C947F028C
S11303500E94A10268F39923B1F3552391F3951BED
S1130360550BBB27AA2762177307840738F09F5FD2
S11303705F4F220F331F441FAA1FA9F335D00E2E3F
S11303803AF0E0E832D091505040E695001CCAF7AC
S11303902BD0FE2F29D0660F771F881FBB1F26176F
S11303A037074807AB07B0E809F0BB0B802DBF0146
S11303B0FF2793585F4F3AF09E3F510578F00C9415
S11303C079020C94C4025F3FE4F3983ED4F386951B
S11303D077956795B795F7959F5FC9F7880F911D36
S11303E09695879597F90895E1E0660F771F881F22
S11303F0BB1F621773078407BA0720F0621B730BD5
S1130400840BBA0BEE1F88F7E09508950E940D0245
S11304106894B1110C94C40208950E94A90288F052
S11304209F5798F0B92F9927B751B0F0E1F0660FB4
S1130430771F881F991F1AF0BA95C9F714C0B130F5
S113044091F00E94C302B1E008950C94C302672F97
S1130450782F8827B85F39F0B93FCCF38695779524
S11304606795B395D9F73EF490958095709561950D
S11304707F4F8F4F9F4F0895E89409C097FB3EF438
S113048090958095709561957F4F8F4F9F4F9923DD
S1130490A9F0F92F96E9BB279395F695879577955B
S11304A06795B795F111F8CFFAF4BB0F11F460FF1B
S11304B01BC06F5F7F4F8F4F9F4F16C0882311F073
S11304C096E911C0772321F09EE8872F762F05C087
S11304D0662371F096E8862F70E060E02AF09A9522
S11304E0660F771F881FDAF7880F9695879597F917
S11304F0089597F99F6780E870E060E008959FEFA2
S113050080EC089500240A941616170618060906A6
S1130510089500240A941216130614060506089575
S1130520092E0394000C11F4882352F0BB0F40F4FD
S1130530BF2B11F460FF04C06F5F7F4F8F4F9F4F3D
S1130540089557FD9058440F551F59F05F3F71F0BF
S11305504795880F97FB991F61F09F3F79F0879526
S11305600895121613061406551FF2CF4695F1DFAF
S113057008C0161617061806991FF1CF869571053F
S1130580610508940895E894BB2766277727CB0173
S113059097F908950E94DD020C9490020E94820251
S11305A038F00E94890220F0952311F00C9479020E
S11305B00C947F0211240C94C4020E94A10270F3D3
S11305C0959FC1F3950F50E0551F629FF001729FF4
S11305D0BB27F00DB11D639FAA27F00DB11DAA1F03
S11305E0649F6627B00DA11D661F829F2227B00D50
S11305F0A11D621F739FB00DA11D621F839FA00DDB
S1130600611D221F749F3327A00D611D231F849F2A
S1130610600D211D822F762F6A2F11249F57504081
S11306209AF0F1F088234AF0EE0FFF1FBB1F661FFC
S1130630771F881F91505040A9F79E3F510580F0C5
S11306400C9479020C94C4025F3FE4F3983ED4F313
S1130650869577956795B795F795E7959F5FC1F769
S1130660FE2B880F911D9695879597F90895BB27C2
S11306704A3031F4992322F4BDE2909581959F4F3D
S11306800C944303BB27FB015527AA27880F991F06
S1130690AA1FA41710F0A41B83955051B9F7A05DAD
S11306A0AA3308F0A95DA193009779F7B111B1932A
S11306B01192CB010C945C03DC01FC01672F719156
S11306C07723E1F7329704C07C916D937083629134
S10F06D0AE17BF07C8F30895F894FFCFDD
S10D06DC4C44522056414C3A0000F1
S9030000FC
