:100000000C942A000C9447000C9447000C94470071
:100010000C9447000C9447000C9447000C94470044
:100020000C9447000C9447000C9447000C94470034
:100030000C9447000C940E010C9447000C9447005C
:100040000C9447000C9447000C9447000C94470014
:100050000C94470011241FBECFE5D8E0DEBFCDBF12
:1000600011E0A0E6B0E0EAEDF2E102C005900D92E9
:10007000AE3BB107D9F723E0AEEBB1E001C01D9272
:10008000A03AB207E1F70E9486030C946B090C9426
:10009000000085BB84E088BB89EF90E00197F1F711
:1000A00000C0000018BA83ED90E30197F1F700C09B
:1000B0000000089588E30E94490089EF90E00197CD
:1000C000F1F700C0000081E00E94490089EF90E054
:1000D0000197F1F700C000008EE00E94490089EF0F
:1000E00090E00197F1F700C00000089585BB85E01E
:1000F00088BB89EF90E00197F1F700C0000081E034
:1001000088BB81EE94E00197F1F700C000000895EC
:10011000EF92FF921F93CF93DF937C01162FC0E0E5
:10012000D0E007C0F701EC0FFD1F80810E94760030
:100130002196812F90E0C817D907A4F3DF91CF91C2
:100140001F91FF90EF90089581E00E94490008956B
:1001500080E80E944900089580EC0E9449000895BB
:1001600085BB88B38D7F88BB88B3856088BB000062
:1001700088B38B7F88BB89EF90E00197F1F700C0CF
:100180000000089580E487B987E886B908958770EC
:1001900097B1987F892B87B986B1806486B93699E3
:1001A000FECF84B195B108952AB128692AB920B546
:1001B000266820BD9B01AC01220F331F441F551F31
:1001C00060E472E48FE090E00E94FB058FEF820F05
:1001D00089B9DA01C9010197A109B109892F9A2FBB
:1001E000AB2FBB2780BD08958CB95D9BFECF0895D2
:1001F0000F931F93CF93DF938C01C0E0D0E003C037
:100200000E94F4002196F801EC0FFD1F80818111FE
:10021000F7CFDF91CF911F910F9108951F920F9209
:100220000FB60F9211248F939F93EF93FF93E0915A
:100230003A03F0913B038CB1E95BFD4F80838091E1
:100240003A0390913B03019690933B0380933A03CA
:1002500081E08093BE01FF91EF919F918F910F906C
:100260000FBE0F901F901895EF92FF920F931F9360
:10027000CF93DF93CDB7DEB7A3970FB6F894DEBF69
:100280000FBECDBF8B0110923B0310923A039F9398
:100290008F9386E890E09F938F93CE0101967C0127
:1002A0009F938F930E947106C7010E94F8000E94DD
:1002B000A4006AE084E990E00E9488008FE493EC57
:1002C0000197F1F700C000000F900F900F900F9072
:1002D0000F900F90E0913A03F0913B03E95BFD4FE3
:1002E00080818E3309F04FC010923B0310923A0385
:1002F0000F2EF7E4EF2EF2E0FF2EF02DF701019024
:100300000020E9F73197AF014754524060E070E0B8
:10031000C7010E941D06C8010E94F8008AE10E94E0
:10032000F4000E94AC0060E18FE990E00E94880038
:100330009FE72AE186E0915020408040E1F700C02D
:1003400000000E94A40010923B0310923A03F701B0
:1003500001900020E9F73197AF014754524060E027
:1003600070E0C7010E941D06CE010196FC010190BC
:100370000020E9F73197AF01481B590B60E070E0AE
:100380000E941D060AC080913A0390913B0301969A
:1003900090933B0380933A039DCFA3960FB6F894B6
:1003A000DEBF0FBECDBFDF91CF911F910F91FF90A8
:1003B000EF900895CF93DF9310923B0310923A038E
:1003C000E0913A03F0913B03E95BFD4F80818D3072
:1003D00049F0E0913A03F0913B03E95BFD4F8081E6
:1003E0008A3051F480913A0390913B0301969093A7
:1003F0003B0380933A03E4CF80EC0E944900C0E0C5
:10040000D0E019C0E0913A03F0913B03E95BFD4F66
:1004100080810E94B00080913A0390913B03019645
:1004200090933B0380933A032196CF30D10519F482
:1004300080E80E944900E0913A03F0913B03E95BB8
:10044000FD4F80818D30F1F610923B0310923A03FC
:10045000E7E4F2E001900020E9F73197AF0147545B
:10046000524060E070E087E492E00E941D06DF9158
:10047000CF910895AF92BF92CF92DF92EF92FF9209
:100480000F931F93CF93DF9300D0CDB7DEB7E12C4E
:10049000F12C20E6E2162AEEF20608F04EC0E7E460
:1004A000F2E001900020E9F73197E754F2406F0144
:1004B000D1F183EF91E00197F1F700C000009FEFC9
:1004C000E91AF90AA7E4B2E00D900020E9F71197C4
:1004D000A754B240EA17FB0731F51EC08A81898311
:1004E000F801E95BFD4F80818A8342E050E061E1E1
:1004F00071E0CE0101960E942406892B51F0C501BE
:10050000019622E0A216B10419F40E94DA0115C086
:100510005C010F5F1F4F04C000E010E0A12CB12C64
:100520000C151D05DCF289EF90E00197F1F700C092
:1005300000009FEFE91AF90AACCF0F900F90DF91FE
:10054000CF911F910F91FF90EF90DF90CF90BF90D0
:10055000AF90089580EC0E9449008CEB90E00E94DF
:10056000F8002FE986E891E0215080409040E1F7C3
:1005700000C0000062EC70E087E492E00E94320666
:10058000892B71F10E943A0280EAE7E4F2E0DF0190
:100590001D928A95E9F7BFE32DE083E0B15020403A
:1005A0008040E1F700C000000E94A4000E94A80063
:1005B00069E085EC90E00E94880080EC0E94490090
:1005C0008FEC90E00E94F8000E943A029FE3ADE0B9
:1005D000B3E09150A040B040E1F700C000000895A2
:1005E0000E94A80065E08AED90E00E948800B2CFEA
:1005F00087B38F7987BB87B3806887BB80E48DB969
:100600000895779BFECF8FB108958F929F92AF92FE
:10061000BF92CF92DF92EF92FF92CF93DF93CDB74D
:10062000DEB72A970FB6F894DEBF0FBECDBF0E948B
:10063000C2000E94A40081EE94E00197F1F700C08F
:10064000000080E00E94C700BC0180E090E00E94B2
:1006500000052AE037ED43E25CE30E948E0526E6C2
:1006600036E646E050E40E9458046B017C0120E02D
:1006700030E040E251E40E948E054B015C01A7018D
:10068000960160E070E080EA90E40E94EB039B0139
:10069000AC01C501B4010E94580420E030E040E8FC
:1006A0005FE30E94EB036B017C010E94A80069E0FC
:1006B0008BE591E00E948800C701B6010E94CA0440
:1006C0006B017C014AE0BE016F5F7F4FC6010E9453
:1006D0004C0665E0CE0101960E94880083EC99E00B
:1006E0000197F1F700C00000C6012A960FB6F894F2
:1006F000DEBF0FBECDBFDF91CF91FF90EF90DF90B7
:10070000CF90BF90AF909F908F9008958FEF87BB51
:1007100087E081BB10923B0310923A030E945A007B
:100720000E94F80260E875E280E090E00E94D40048
:1007300078940E94A80060E184E691E00E9488001D
:100740002FEB87E299E0215080409040E1F700C014
:1007500000000E94A4000E94A80062E085E791E0EA
:100760000E9488000E94AA020E94A4000E94050321
:100770002FE78AE196E0215080409040E1F700C0E9
:1007800000000E94A4000E940103823009F56AE083
:1007900088E791E00E94880087EA91E60197F1F7E7
:1007A00000C0000063E871E083EA91E00E94340138
:1007B0000E94A4006DE080EB91E00E9488009FE918
:1007C00026E881E0915020408040E1F700C0000021
:1007D00080E090E008955058BB27AA270E940304A8
:1007E0000C9454050E94460538F00E944D0520F0F7
:1007F00039F49F3F19F426F40C9443050EF4E09568
:10080000E7FB0C943D05E92F0E94650558F3BA17E4
:10081000620773078407950720F079F4A6F50C9416
:1008200087050EF4E0950B2EBA2FA02D0B01B90110
:1008300090010C01CA01A0011124FF27591B99F056
:10084000593F50F4503E68F11A16F040A22F232F62
:10085000342F4427585FF3CF469537952795A795B2
:10086000F0405395C9F77EF41F16BA0B620B730B59
:10087000840BBAF09150A1F0FF0FBB1F661F771FCA
:10088000881FC2F70EC0BA0F621F731F841F48F47F
:10089000879577956795B795F7959E3F08F0B0CF08
:1008A0009395880F08F09927EE0F979587950895EF
:1008B0000E946C040C9454050E944D0558F00E944F
:1008C000460540F029F45F3F29F00C943D05511195
:1008D0000C9488050C9443050E94650568F39923E0
:1008E000B1F3552391F3951B550BBB27AA2762172C
:1008F0007307840738F09F5F5F4F220F331F441F39
:10090000AA1FA9F335D00E2E3AF0E0E832D091506C
:100910005040E695001CCAF72BD0FE2F29D0660F59
:10092000771F881FBB1F261737074807AB07B0E89C
:1009300009F0BB0B802DBF01FF2793585F4F3AF0A2
:100940009E3F510578F00C943D050C9488055F3F5F
:10095000E4F3983ED4F3869577956795B795F79528
:100960009F5FC9F7880F911D9695879597F9089510
:10097000E1E0660F771F881FBB1F621773078407AC
:10098000BA0720F0621B730B840BBA0BEE1F88F7BB
:10099000E09508950E94D1046894B1110C948805E3
:1009A00008950E946D0588F09F5798F0B92F9927F8
:1009B000B751B0F0E1F0660F771F881F991F1AF04A
:1009C000BA95C9F714C0B13091F00E948705B1E023
:1009D00008950C948705672F782F8827B85F39F022
:1009E000B93FCCF3869577956795B395D9F73EF4E3
:1009F00090958095709561957F4F8F4F9F4F08958B
:100A0000E89409C097FB3EF49095809570956195A8
:100A10007F4F8F4F9F4F9923A9F0F92F96E9BB275E
:100A20009395F695879577956795B795F111F8CFDA
:100A3000FAF4BB0F11F460FF1BC06F5F7F4F8F4F45
:100A40009F4F16C0882311F096E911C0772321F03B
:100A50009EE8872F762F05C0662371F096E8862FD3
:100A600070E060E02AF09A95660F771F881FDAF72A
:100A7000880F9695879597F9089597F99F6780E86D
:100A800070E060E008959FEF80EC089500240A94E0
:100A90001616170618060906089500240A94121659
:100AA0001306140605060895092E0394000C11F48C
:100AB000882352F0BB0F40F4BF2B11F460FF04C039
:100AC0006F5F7F4F8F4F9F4F089557FD9058440F92
:100AD000551F59F05F3F71F04795880F97FB991F9D
:100AE00061F09F3F79F0879508951216130614065A
:100AF000551FF2CF4695F1DF08C0161617061806E7
:100B0000991FF1CF86957105610508940895E894C1
:100B1000BB2766277727CB0197F908950E94A10587
:100B20000C9454050E94460538F00E944D0520F0B3
:100B3000952311F00C943D050C94430511240C945D
:100B400088050E94650570F3959FC1F3950F50E0ED
:100B5000551F629FF001729FBB27F00DB11D639F6F
:100B6000AA27F00DB11DAA1F649F6627B00DA11D15
:100B7000661F829F2227B00DA11D621F739FB00DBB
:100B8000A11D621F839FA00D611D221F749F33272B
:100B9000A00D611D231F849F600D211D822F762FC4
:100BA0006A2F11249F5750409AF0F1F088234AF0A1
:100BB000EE0FFF1FBB1F661F771F881F915050400D
:100BC000A9F79E3F510580F00C943D050C948805D3
:100BD0005F3FE4F3983ED4F3869577956795B79594
:100BE000F795E7959F5FC1F7FE2B880F911D9695AE
:100BF000879597F90895A1E21A2EAA1BBB1BFD0148
:100C00000DC0AA1FBB1FEE1FFF1FA217B307E407EB
:100C1000F50720F0A21BB30BE40BF50B661F771F43
:100C2000881F991F1A9469F7609570958095909523
:100C30009B01AC01BD01CF010895DC0101C06D93A2
:100C400041505040E0F70895FB01DC014150504015
:100C500030F08D910190801919F40020B9F7881BAC
:100C6000990B0895FB0151915523A9F0BF01DC01B7
:100C70004D9145174111E1F759F4CD010190002044
:100C800049F04D9140154111C9F3FB014111EFCFDE
:100C900081E090E001970895BB274A3031F4992311
:100CA00022F4BDE2909581959F4F0C945806BB2786
:100CB000FB015527AA27880F991FAA1FA41710F018
:100CC000A41B83955051B9F7A05DAA3308F0A95D24
:100CD000A193009779F7B111B1931192CB010C94C4
:100CE0008A08AEE0B0E0E7E7F6E00C9442090D892F
:100CF0001E8986E08C831A8309838FEF9FE79E838A
:100D00008D83AE01475E5F4F6F89788DCE0101966E
:100D10000E949306EF81F885E00FF11F10822E9656
:100D2000E4E00C945E09ABE0B0E0E9E9F6E00C9495
:100D300034096C017B018A01FC01178216828381D0
:100D400081FFCCC1CE0101963C01F6019381F701F0
:100D500093FD859193FF81917F01882309F4BAC1A6
:100D6000853239F493FD859193FF81917F0185321E
:100D700029F4B60190E00E949A08E7CF912C212C2B
:100D8000312CFFE1F315D8F08B3279F038F4803252
:100D900079F08332A1F4232D20611DC08D3261F0E2
:100DA000803369F4232D216016C0832D8260382E94
:100DB000E32DE4603E2E2AC0F32DF8601DC037FC01
:100DC0002DC020ED280F2A3040F08E32B9F436FCC9
:100DD00081C1232D2064322E19C036FE06C08AE060
:100DE000989E200D1124922E11C0EAE02E9E200D17
:100DF0001124222EF32DF0623F2E08C08C3621F4F0
:100E0000832D8068382E02C0883641F4F70193FDA7
:100E1000859193FF81917F018111B3CF982F9F7DA1
:100E20009554933028F40C5F1F4F9FE399830DC0B6
:100E3000833631F0833771F0833509F059C021C012
:100E4000F801808189830E5F1F4F88248394912C41
:100E5000530113C02801F2E04F0E511CF801A0808D
:100E6000B18036FE03C0692D70E002C06FEF7FEFE6
:100E7000C5010E947F084C018201F32DFF773F2EB0
:100E800016C0280122E0420E511CF801A080B1805A
:100E900036FE03C0692D70E002C06FEF7FEFC50121
:100EA0000E9474084C01F32DF0683F2E820133FC40
:100EB0001BC0822D90E088169906B0F4B60180E23E
:100EC00090E00E949A082A94F4CFF50137FC8591AE
:100ED00037FE81915F01B60190E00E949A082110CF
:100EE0002A9421E0821A91088114910471F7E8C0D4
:100EF000843611F0893641F5F80137FE07C060816C
:100F00007181828193810C5F1F4F08C06081718164
:100F1000072E000C880B990B0E5F1F4FF32DFF76E9
:100F20003F2E97FF09C090958095709561957F4FF2
:100F30008F4F9F4FF0683F2E2AE030E0A3010E94C0
:100F4000D608882E861845C0853731F4232D2F7E8C
:100F5000B22E2AE030E025C0932D997FB92E8F362E
:100F6000C1F018F4883579F0B5C0803719F08837AA
:100F700021F0B0C0E92FE061BE2EB4FE0DC0FB2D04
:100F8000F460BF2E09C034FE0AC0292F2660B22E9D
:100F900006C028E030E005C020E130E002C020E1DA
:100FA00032E0F801B7FE07C06081718182819381D0
:100FB0000C5F1F4F06C06081718180E090E00E5F82
:100FC0001F4FA3010E94D608882E8618FB2DFF779D
:100FD0003F2E36FE0DC0232D2E7FA22E891458F4ED
:100FE00034FE0BC032FC09C0832D8E7EA82E05C0B6
:100FF000B82CA32C03C0B82C01C0B92CA4FE0FC080
:10100000FE01E80DF11D8081803321F49A2D997E37
:10101000A92E09C0A2FE06C0B394B39404C08A2DC1
:10102000867809F0B394A3FC11C0A0FE06C0B214E8
:1010300088F4280C922C9B180EC0B21460F4B601F0
:1010400080E290E00E949A08B394F7CFB21418F4AB
:101050002B1802C0982C212CA4FE10C0B60180E3EE
:1010600090E00E949A08A2FE17C0A1FC03C088E786
:1010700090E002C088E590E0B6010CC08A2D867829
:1010800059F0A1FE02C08BE201C080E2A7FC8DE214
:10109000B60190E00E949A08891438F4B60180E302
:1010A00090E00E949A089A94F7CF8A94F301E80D91
:1010B000F11D8081B60190E00E949A088110F5CF61
:1010C000222009F442CEB60180E290E00E949A0804
:1010D0002A94F6CFF6018681978102C08FEF9FEFA9
:1010E0002B96E2E10C945009FC0105906150704090
:1010F0000110D8F7809590958E0F9F1F0895FC01E1
:101100006150704001900110D8F7809590958E0F36
:101110009F1F0895DC01FC01672F71917723E1F790
:10112000329704C07C916D9370836291AE17BF07B4
:10113000C8F308950F931F93CF93DF93FB0123818F
:1011400021FD03C08FEF9FEF2CC022FF16C0468108
:101150005781248135814217530744F4A081B1811E
:101160009D012F5F3F4F318320838C9326813781F0
:101170002F5F3F4F3783268314C08B01EC01FB01A7
:101180000084F185E02D0995892BE1F6D8011696AA
:101190008D919C911797019617969C938E93169715
:1011A000CE01DF91CF911F910F910895FA01AA27E7
:1011B000283051F1203181F1E8946F936E7F6E5F9A
:1011C0007F4F8F4F9F4FAF4FB1E03ED0B4E03CD048
:1011D000670F781F891F9A1FA11D680F791F8A1F2B
:1011E000911DA11D6A0F711D811D911DA11D20D092
:1011F00009F468943F912AE0269F11243019305D4C
:101200003193DEF6CF010895462F4770405D41933C
:10121000B3E00FD0C9F7F6CF462F4F70405D4A3389
:1012200018F0495D31FD4052419302D0A9F7EACF51
:10123000B4E0A6959795879577956795BA95C9F780
:1012400000976105710508959B01AC010A2E069473
:101250005795479537952795BA95C9F7620F731F2C
:10126000841F951FA01D08952F923F924F925F9269
:101270006F927F928F929F92AF92BF92CF92DF92A6
:10128000EF92FF920F931F93CF93DF93CDB7DEB70B
:10129000CA1BDB0B0FB6F894DEBF0FBECDBF09949F
:1012A0002A88398848885F846E847D848C849B84F6
:1012B000AA84B984C884DF80EE80FD800C811B8104
:1012C000AA81B981CE0FD11D0FB6F894DEBF0FBE33
:0A12D000CDBFED010895F894FFCFA3
:1012DA0041542B434D47443D25640D0041542B4353
:1012EA004D4744413D2244454C20414C4C220D007F
:1012FA00434D54493A0041542B434D47533D22250F
:10130A0073220D0053656E64696E672E2E2E00538C
:10131A00656E74207375636365737366756C0041DB
:10132A00544425733B0D004154480D004154453047
:10133A000D004F4B0054657874204D6F6465004171
:10134A00542B434D47463D310D004572726F720072
:10135A002B434D4752004E6F206D6573736167656D
:10136A000041542B434D47523D25640D0041542BF7
:10137A0043434C4B3F0D0A0041542B434C54533DBD
:10138A00310D0A00415426570D0A002B43434C4B9A
:10139A003A00256325630047534D20446174652054
:1013AA00262054696D65203A00253032642E253096
:1013BA0032642E25303264203A20253032642F25BB
:1013CA003032642F253032640D0A004C44522056C4
:1013DA00414C3A0047534D20496E697469616C6902
:1013EA007A696E67004154005741544552204C4F68
:1013FA005721005761746572206C6F772120506CF9
:10140A00656173652066696C6C2074686520546137
:10141A006E6B002B3934373633313833393738006D
:0E142A004D4553534147452053454E54210034
:00000001FF
