S00E0000417433322D722E737265635D
S11300000C942A000C9447000C9447000C9447006D
S11300100C9447000C9447000C9447000C94470040
S11300200C9447000C9447000C9447000C94470030
S11300300C9447000C9447000C9447000C94470020
S11300400C9447000C9447000C9447000C94470010
S11300500C94470011241FBECFE5D8E0DEBFCDBF0E
S113006010E0A0E6B0E0E0EEF9E002C005900D92E9
S1130070AE38B107D9F720E0AEE8B0E001C01D9278
S1130080AD39B207E1F70E9439010C94EE040C94E7
S1130090000011B88FEF80B9089594EA96BF06B6B0
S11300A007FEFDCF91B1987F983071F483B984E84D
S11300B086BF06B607FEFDCF81B1887F883131F057
S11300C0803231F482E0089580E0089581E008955B
S11300D083E0089594EA96BF06B607FEFDCF91B17A
S11300E0987F903171F483B984E886BF06B607FE21
S11300F0FDCF81B1887F803431F0803231F482E0E9
S1130100089580E0089581E0089583E0089584E9E6
S113011086BF06B604FCFDCF089583B984E886BF84
S113012006B607FEFDCF81B1887F883221F0803387
S113013021F481E0089580E0089582E0089584EC3C
S113014086BF06B607FEFDCF83B190E0089584E82C
S113015086BF06B607FEFDCF83B190E0089582BB4B
S113016084E088BB89EF90E00197F1F700C00000BC
S113017018BA83ED90E30197F1F700C000000895E9
S113018088E30E94AF0089EF90E00197F1F700C087
S1130190000081E00E94AF0089EF90E00197F1F741
S11301A000C000008EE00E94AF0089EF90E001974C
S11301B0F1F700C00000089582BB85E088BB89EF99
S11301C090E00197F1F700C0000081E088BB81EE68
S11301D094E00197F1F700C000000895EF92FF92B8
S11301E01F93CF93DF937C01162FC0E0D0E007C0AC
S11301F0F701EC0FFD1F80810E94DC002196812F06
S113020090E0C817D907A4F3DF91CF911F91FF9015
S1130210EF90089580E80E94AF00089580EC0E945A
S1130220AF00089585FF02C081E0089580E008953D
S1130230CF93C82F80ED0E944D008C2F0E948D001B
S113024081ED0E946A000E949F0090939100809328
S113025090000E949F0090939300809392000E94CC
S1130260A70090939500809394000E948700CF91FB
S11302700895CF93DF93CDB7DEB764970FB6F894A4
S1130280DEBF0FBECDBF8FEF87BB87E081BB0E946F
S113029049000E94C00000E010E080E090E00E946D
S11302A01801809194009091950086FF44C020919C
S11302B091002F93209190002F93209193002F93DE
S11302C0209192002F938F7199279F938F9389E6A2
S11302D090E09F938F93CE0101969F938F930E94FA
S11302E00402809194000E9412010FB6F894DEBFBC
S11302F00FBECDBF882361F0FE013196019000202E
S1130300E9F7319780E59DE49183808312820BC0E5
S1130310FE01319601900020E9F7319781E49DE4D4
S11303209183808312820E940A0162E0CE010196C9
S11303300E94EE00B2CF209191002F932091900063
S11303402F93209193002F93209192002F938F71DC
S113035099279F938F9389E690E09F938F93CE0183
S113036001967C019F938F930E9404020E940A01CC
S11303706AE0C7010E94EE0080919400909195007C
S11303800FB6F894DEBF0FBECDBF489739F4809105
S11303909200909193008035910589F08AE0EAE714
S11303A0F0E0DE01119601900D928A95E1F70E942A
S11303B00E0169E0CE0101960E94EE0002C001E048
S11303C010E00130110509F068CF89E0E4E8F0E0BD
S11303D0DE01119601900D928A95E1F70E940E01BB
S11303E069E0CE0101960E94EE0082B3816082BB77
S11303F03FE78FE492E1315080409040E1F700C044
S1130400000000E010E049CFAEE0B0E0EAE0F2E046
S11304100C94C5040D891E8986E08C831A83098394
S11304208FEF9FE79E838D83AE01475E5F4F6F8999
S1130430788DCE0101960E942602EF81F885E00FA7
S1130440F11F10822E96E4E00C94E104ABE0B0E0DE
S1130450ECE2F2E00C94B7046C017B018A01FC012C
S113046017821682838181FFCCC1CE0101963C01A3
S1130470F6019381F70193FD859193FF81917F01AB
S1130480882309F4BAC1853239F493FD859193FF29
S113049081917F01853229F4B60190E00E941D0408
S11304A0E7CF912C212C312CFFE1F315D8F08B32BE
S11304B079F038F4803279F08332A1F4232D20616D
S11304C01DC08D3261F0803369F4232D216016C084
S11304D0832D8260382EE32DE4603E2E2AC0F32D56
S11304E0F8601DC037FC2DC020ED280F2A3040F0E5
S11304F08E32B9F436FC81C1232D2064322E19C00A
S113050036FE06C08AE0989E200D1124922E11C05A
S1130510EAE02E9E200D1124222EF32DF0623F2EB0
S113052008C08C3621F4832D8068382E02C08836AA
S113053041F4F70193FD859193FF81917F0181112E
S1130540B3CF982F9F7D9554933028F40C5F1F4FA1
S11305509FE399830DC0833631F0833771F083357F
S113056009F059C021C0F801808189830E5F1F4FB3
S113057088248394912C530113C02801F2E04F0E78
S1130580511CF801A080B18036FE03C0692D70E0D3
S113059002C06FEF7FEFC5010E9412044C0182017B
S11305A0F32DFF773F2E16C0280122E0420E511C86
S11305B0F801A080B18036FE03C0692D70E002C04E
S11305C06FEF7FEFC5010E9407044C01F32DF06823
S11305D03F2E820133FC1BC0822D90E088169906C1
S11305E0B0F4B60180E290E00E941D042A94F4CF96
S11305F0F50137FC859137FE81915F01B60190E0EA
S11306000E941D0421102A9421E0821A9108811469
S1130610910471F7E8C0843611F0893641F5F80188
S113062037FE07C060817181828193810C5F1F4F07
S113063008C060817181072E000C880B990B0E5F36
S11306401F4FF32DFF763F2E97FF09C0909580959D
S1130650709561957F4F8F4F9F4FF0683F2E2AE032
S113066030E0A3010E945904882E861845C08537BE
S113067031F4232D2F7EB22E2AE030E025C0932DB5
S1130680997FB92E8F36C1F018F4883579F0B5C04A
S1130690803719F0883721F0B0C0E92FE061BE2E11
S11306A0B4FE0DC0FB2DF460BF2E09C034FE0AC099
S11306B0292F2660B22E06C028E030E005C020E1D4
S11306C030E002C020E132E0F801B7FE07C06081EB
S11306D07181828193810C5F1F4F06C0608171819B
S11306E080E090E00E5F1F4FA3010E945904882E02
S11306F08618FB2DFF773F2E36FE0DC0232D2E7F4F
S1130700A22E891458F434FE0BC032FC09C0832D88
S11307108E7EA82E05C0B82CA32C03C0B82C01C013
S1130720B92CA4FE0FC0FE01E80DF11D80818033B9
S113073021F49A2D997EA92E09C0A2FE06C0B39475
S1130740B39404C08A2D867809F0B394A3FC11C035
S1130750A0FE06C0B21488F4280C922C9B180EC07C
S1130760B21460F4B60180E290E00E941D04B394D8
S1130770F7CFB21418F42B1802C0982C212CA4FE25
S113078010C0B60180E390E00E941D04A2FE17C0D1
S1130790A1FC03C088E790E002C088E590E0B601C0
S11307A00CC08A2D867859F0A1FE02C08BE201C0EC
S11307B080E2A7FC8DE2B60190E00E941D0489143A
S11307C038F4B60180E390E00E941D049A94F7CFB8
S11307D08A94F301E80DF11D8081B60190E00E9436
S11307E01D048110F5CF222009F442CEB60180E227
S11307F090E00E941D042A94F6CFF6018681978129
S113080002C08FEF9FEF2B96E2E10C94D304FC011E
S11308100590615070400110D8F7809590958E0F27
S11308209F1F0895FC016150704001900110D8F79A
S1130830809590958E0F9F1F08950F931F93CF93CC
S1130840DF93FB01238121FD03C08FEF9FEF2CC0B9
S113085022FF16C0468157812481358142175307F0
S113086044F4A081B1819D012F5F3F4F31832083E8
S11308708C93268137812F5F3F4F3783268314C0A3
S11308808B01EC01FB010084F185E02D0995892B96
S1130890E1F6D80116968D919C91179701961796BB
S11308A09C938E931697CE01DF91CF911F910F9158
S11308B00895FA01AA27283051F1203181F1E894F2
S11308C06F936E7F6E5F7F4F8F4F9F4FAF4FB1E03F
S11308D03ED0B4E03CD0670F781F891F9A1FA11D3A
S11308E0680F791F8A1F911DA11D6A0F711D811D3B
S11308F0911DA11D20D009F468943F912AE0269F00
S113090011243019305D3193DEF6CF010895462F5E
S11309104770405D4193B3E00FD0C9F7F6CF462F3F
S11309204F70405D4A3318F0495D31FD40524193A8
S113093002D0A9F7EACFB4E0A69597958795779565
S11309406795BA95C9F700976105710508959B01EC
S1130950AC010A2E06945795479537952795BA9575
S1130960C9F7620F731F841F951FA01D08952F924E
S11309703F924F925F926F927F928F929F92AF922B
S1130980BF92CF92DF92EF92FF920F931F93CF9378
S1130990DF93CDB7DEB7CA1BDB0B0FB6F894DEBF0F
S11309A00FBECDBF09942A88398848885F846E8435
S11309B07D848C849B84AA84B984C884DF80EE807F
S11309C0FD800C811B81AA81B981CE0FD11D0FB688
S11309D0F894DEBF0FBECDBFED010895F894FFCFAC
S11309E04C44522056414C3A00253032783A253056
S11309F032783A253032782020004D6F746F72209F
S1110A004F6666004D6F746F72204F6E0000DB
S9030000FC
