S00B00006174312E7372656313
S11300000C942A000C9434000C9434000C943400A6
S11300100C9434000C9434000C9434000C9434008C
S11300200C9434000C9434000C9434000C9434007C
S11300300C9434000C9434000C9434000C9434006C
S11300400C9434000C9434000C9434000C9434005C
S11300500C94340011241FBECFE5D8E0DEBFCDBF21
S11300600E9436000C944F000C94000082B381600F
S113007082BB2FE38DE093E0215080409040E1F774
S113008000C0000082B38E7F82BB2FE38DE093E03B
S1130090215080409040E1F700C00000E7CFF89481
S10500A0FFCF8C
S9030000FC
